:020000022000DC
:10700000000004205D8602009D8602009F8602002B
:10701000A1860200A3860200A586020000000000EF
:10702000000000000000000000000000D985020000
:10703000A986020000000000F9850200AD8602006A
:10704000AF860200AF860200AF860200AF86020064
:10705000AF860200AF860200AF860200AF86020054
:10706000AF860200AF860200AF860200AF86020044
:10707000AF860200AF860200AF860200AF86020034
:10708000AF86020029830200AF860200AF860200AD
:10709000AF860200AF860200AF860200AF86020014
:1070A000AF860200AF860200AF860200AF86020004
:1070B000AF860200AF860200000000000000000062
:1070C000AF860200AF860200AF860200AF860200E4
:1070D000AF860200AF860200AF860200AF860200D4
:1070E000AF860200AF860200AF86020000000000FB
:1070F00000000000AF86020000000000AF86020022
:10710000000000000000000000000000000000007F
:10711000000000000000000000000000000000006F
:10712000000000000000000000000000000000005F
:10713000000000000000000000000000000000004F
:10714000000000000000000000000000000000003F
:10715000000000000000000000000000000000002F
:10716000000000000000000000000000000000001F
:10717000000000000000000000000000000000000F
:1071800000000000000000000000000000000000FF
:1071900000000000000000000000000000000000EF
:1071A00000000000000000000000000000000000DF
:1071B00000000000000000000000000000000000CF
:1071C00000000000000000000000000000000000BF
:1071D00000000000000000000000000000000000AF
:1071E000000000000000000000000000000000009F
:1071F000000000000000000000000000000000008F
:10720000F1EE103A43F08073E1EE103A704700BFA0
:1072100010B5054C237833B9044B13B10448AFF3D0
:1072200000800123237010BDE061002000000000F9
:1072300060C0020008B5034B1BB103490348AFF31C
:10724000008008BD00000000E461002060C0020072
:10725000154B002B08BF134B9D46A3F5803A002128
:107260008B460F461348144A121A02F015FB0F4BB7
:10727000002B00D098470E4B002B00D098470020E1
:10728000002104000D000D48002802D00C48AFF387
:10729000008002F0BFFA2000290001F037FA02F066
:1072A000A5FA00BF00000800000004200000000054
:1072B00000000000E0610020186C002000000000C9
:1072C0000000000001210B2001F0DEBB08B5012108
:1072D0000B2001F05DFC4FF47A7000F03BF80B20BE
:1072E000002101F055FCBDE808404FF47A7000F031
:1072F00031B800BF08B501210E2001F0C5FB012106
:107300000E2001F045FC0021162001F0BDFB0121FB
:10731000192001F0B9FB0121192001F039FC0121EC
:107320000B2001F0B1FB01210B2001F031FC012108
:107330000D2001F0A9FB01210D2001F029FC012104
:107340000C2001F0A1FBBDE8084001210C2001F058
:107350001FBC00BF014638B54FF47A72002380028B
:10736000890D02F0C7F8044600F0F8F90546AFF3BE
:10737000008000F0F3F9431B9C4200D838BD2C4438
:10738000201ABDE8384000F021BB00BF2DE9F041D4
:10739000044600F0B1FF344A344D136801331360E2
:1073A0002B68002B30D0324E336833B3E36A314858
:1073B000314907680A689F4238BF03602F4801328D
:1073C00003EB83030A6000EB8300E263211D01F0FD
:1073D0000DFC00F09BFF33686BB12A68E36AD26A48
:1073E0009A4208D2264B4FF080525A6040BFBFF3FA
:1073F0004F8FBFF36F8FBDE8F0812A68E36AD26ACE
:107400009A4298BF2C60D2E72C601368012B02D0FF
:10741000E36A174ECBE71948DFF89080194F144EF6
:1074200001F0D4FB184801F0D1FB184801F0CEFB65
:10743000174801F0CBFB174801F0C8FB404601F0AC
:10744000C5FB384601F0C2FB134801F0BFFB1348EF
:1074500001F0BCFB124801F0B9FB124B124AC2F812
:1074600000801F60E36AA2E76C620020FC610020DC
:10747000CC620020806200207C6200200862002034
:1074800000ED00E0986200201C62002030620020C5
:107490004462002058620020B8620020E4620020AC
:1074A000D06200200462002000620020846200207C
:1074B0002DE9F843DDE909C4002C66D0BCF1000FCA
:1074C00060D00D46960098460223324684F851302B
:1074D000A5210746C4F830C0604602F0DDF92A78DD
:1074E00084F83420236B2978321F1A4422F00706CF
:1074F00001B36B7884F835306B78DBB1AB7884F806
:107500003630AB78B3B1EB7884F83730EB788BB1A9
:107510002B7984F838302B7963B16B7984F8393062
:107520006B793BB1AB7984F83A30AB7913B1EB7935
:1075300084F83B30089D042D28BF04254FF0000936
:10754000E5626564201D84F83B90C4F8489001F022
:1075500049FBC5F1050504F1180001F043FBC4F82F
:107560004C9042463946A561246184F8509064628B
:10757000304600F085FE20602046FFF707FF2046DA
:10758000BDE8F8836046BDE8F8832046BDE8F8838F
:107590002DE9F0479600804630460D46994601F0A9
:1075A00091FB002862D00746542001F08BFB044673
:1075B00000285FD000230763324684F851303846F4
:1075C000A52102F069F92B7884F834302B78D4F8AF
:1075D00030A003B36B7884F835306B78DBB1AB78CF
:1075E00084F83630AB78B3B1EB7884F83730EB7889
:1075F0008BB12B7984F838302B7963B16B7984F8AF
:1076000039306B793BB1AB7984F83A30AB7913B14F
:10761000EB7984F83B30089D042D28BF0425002712
:10762000E5626564201D84F83B70A764043E01F0A8
:10763000D9FAC5F1050504F11800564401F0D2FA53
:10764000E764A56126F0070084F850702461646245
:107650004A46414600F014FE099B206003B11C60BD
:107660002046FFF793FE0120BDE8F0874FF0FF3082
:10767000BDE8F087384601F039FB4FF0FF30F3E703
:1076800070B584B0002503AA02A901A8CDE901556F
:1076900001F036F9019C002C46D00298002843D016
:1076A000039E20630223B6003246A52184F85130A0
:1076B00002F0F2F8206B1F4B6363043E0644C4E9FA
:1076C0001155201D84F8385084F83B50E56201F0D4
:1076D00089FA04F1180001F085FA26F0070605235F
:1076E0001549A3612A46E56430462461646284F842
:1076F000505000F0C5FD20602046FFF747FE0F4BBD
:107700001C6000F063FD012811D1402383F3118830
:107710000B490C4A0C4B4FF0FF340C6010601D609D
:1077200000F0C4FD04B070BD044B00221A6004B028
:1077300070BD00BF49444C45517A0200AC62002044
:10774000B0620020CC620020F8620020024A136878
:1077500001331360704700BF78620020014B186846
:10776000704700BFF8620020024A13681844106096
:10777000704700BFF86200202DE9F04F404B1B68B6
:1077800083B0002B46D13F4B1E6801361E60002E91
:107790004ED0DFF808B1DBF80030B3425FD83A4F83
:1077A0003B681D68002D65D0DFF8F480DFF8F4A099
:1077B000DFF8F490002522E0019101F03FFAA36A7E
:1077C000019904F1180013B101F038FA0199E36A44
:1077D000D8F8002003EB830093420AEB800088BFB7
:1077E000C8F8003001F002FAD9F800203B68E16ADD
:1077F000D26A1B68914228BF0125002B3AD03B6812
:10780000DB68DC686368211D9E420846D4D2CBF851
:10781000003004E01D4A13680133136000251C4B3F
:107820001B68002B0CBF2846012003B0BDE8F08F79
:10783000154B184A1868184914681C6010600A68CB
:1078400001320A601A6812685AB9DFF850B04FF076
:10785000FF33CBF80030DBF80030B3429FD900256E
:10786000DDE71B68DFF834B0DB68DB685B68CBF80A
:10787000003090E74FF0FF33CBF80030CFE700BF88
:1078800078620020F862002000620020746200200C
:10789000FC62002004620020B4620020B06200207C
:1078A0008062002008620020FC6100202DE9F04F7A
:1078B00083B000F021FD3A4B1A68013A1A601B6848
:1078C000002B55D1374B1B68002B51D0364D2B6800
:1078D000002B62D0354EDFF8EC80354FDFF8E890B2
:1078E0004FF0010AEB68DC6804F1040B04F11800A6
:1078F00001F0A4F9584601F0A1F9E36A326803EBFC
:1079000083009342594608EB800088BF336001F042
:107910006DF93B68E26ADB6A9A4231D3C9F800A08C
:107920002B68002BDED1234B1A681268002A2FD057
:107930001A68214BD268D26852681A601F4E3468A8
:1079400044B10125FFF718FF08B1C9F80050013C08
:10795000F8D13460D9F8003053B1194B4FF0805250
:107960005A6040BFBFF34F8FBFF36F8F012000E01D
:107970000020019000F0CAFC019803B0BDE8F08F30
:107980002B68002BAED10B4B1A681268002ACFD19E
:10799000094B4FF0FF321A60D0E7DFF82C90CDE7AB
:1079A000786200206C620020B862002080620020B3
:1079B000FC61002000620020B062002074620020A0
:1079C00000ED00E008620020FC62002070B548B9BC
:1079D000184B4FF080525A6040BFBFF34F8FBFF338
:1079E0006F8F70BD144A15491368154D013313602C
:1079F0000E6804462868043001F020F92B68A419A9
:107A00005C600FD20F4B18682968043101F0FEF852
:107A10000D4B1A68944238BF1C60FFF747FF0028DF
:107A2000D6D070BD094B18682968043101F0EEF812
:107A3000F3E700BF00ED00E078620020F86200206C
:107A4000FC61002000620020B0620020046200207F
:107A50002DE9F84F3A4CDFF804913A4D3A4EDFF8F1
:107A600000813A4FDFF8FCB02368EBB100F044FC32
:107A7000D9F80C30D3F80CA00AF1040001F0DEF8BC
:107A80002B68013B2B602368013B236000F03EFC28
:107A90009AF85130002B34D0012BE5D1504601F03B
:107AA00025F92368002BE1D13368012B08D94FF069
:107AB0008053CBF8043040BFBFF34F8FBFF36F8FBD
:107AC00000F0CAFDD8F800301BBB3B68DB6A002B16
:107AD000CAD13368012BC7D81D4B1E4A1B681268D8
:107AE0009B1A012BC0D91C4A136801331360D8F8C4
:107AF0000030A3B13B68DB6A03B93368FFF7D6FEF9
:107B0000B2E7DAF8300001F0F1F8504601F0EEF893
:107B1000AAE73B68DB6A002BA6D13368A4E73B6881
:107B2000DB6A002BEAD13368012BE7D8084B1868D1
:107B3000084B1B68C01A0128E0D900F057FCDDE7AC
:107B4000706200206C62002008620020FC6100204E
:107B5000B0620020F862002078620020E462002019
:107B60008062002000ED00E0294B1B681BB1294B0F
:107B700001221A607047274A70B5274C13602268AB
:107B8000236812681B6B9A423CD9244D244B2A6807
:107B900002EB820080009100185808BB501E00EBD9
:107BA0008006B60081009E5956BB901E00EB8006F1
:107BB000B60081009E591EBBD01E00EB8006B600A9
:107BC00081009E59E6B9101F00EB8006B6008100C7
:107BD0009E59AEB9053A02EB820080009100185818
:107BE000114403EB81000346416849684160083352
:107BF000994204BF49684160CB6823602A6070BD28
:107C00000246EDE720682168343100F075FEBCE7DC
:107C100078620020FC620020FC610020806200206D
:107C20000862002070B5174D2B680C4603F118014F
:107C300000F0ECFF144B1E682868043000F0FEFFD3
:107C4000631C17D02B68A4195C6007D30F4B18680E
:107C50002968BDE87040043100F0D8BF0C4B1868AB
:107C60002968043100F0D2FF0A4B1A68944238BFE9
:107C70001C6070BD29680848BDE87040043100F000
:107C8000B5BF00BFFC610020F86200200462002044
:107C900000620020B0620020D062002070B5194D53
:107CA0002B6816460C4603F1180100F09FFF164B97
:107CB0005EB11B682868043000F0C0FF29681348D3
:107CC000BDE87040043100F091BF1E6828680430A0
:107CD00000F0B4FF2B68A4195C6007D30C4B186844
:107CE0002968BDE87040043100F090BF094B186866
:107CF0002968043100F08AFF074B1A68944238BFA4
:107D00001C6070BDFC610020F8620020D062002081
:107D10000462002000620020B062002030B5C36819
:107D2000DC6804F1180583B0284600F087FF1C4B7F
:107D30001B683BBB211D0846019100F07FFF194ADB
:107D4000E36A106801998342174888BF136003EB08
:107D5000830300EB830000F049FF144BE26A1B68C9
:107D6000DB6A9A4282BF124B01201860114B1A68DD
:107D7000126898BF002052B90F4B4FF0FF321A60C3
:107D800003B030BD0D48294600F030FFE5E71A6822
:107D9000094BD268D26852681A6003B030BD00BF88
:107DA000786200208062002008620020FC610020D0
:107DB000FC62002000620020B0620020B862002057
:107DC000034A044B12681B68C0E90023704700BFD8
:107DD000B4620020F8620020F0B50D4683B004467E
:107DE00000F08AFA2B68144A591C10681DD0DFF87D
:107DF0004CC0D4E90061DCF80070BE4208D081427A
:107E000006D80120019000F081FA019803B0F0BD7E
:107E1000471ABB420BD91B1A0B44DCF8001012683E
:107E20002B600020C4E90012ECE70020EAE7002301
:107E30002B600120E6E700BFF8620020B46200205A
:107E4000014B01221A607047FC620020094B186840
:107E500018B9094B1B6813B1704700207047074AD7
:107E6000074B10681B68013B984214BF0120022099
:107E7000704700BFB8620020FC620020D062002082
:107E80006C620020054B1B6833B1054B1B68002B4F
:107E90000CBF02200020704701207047CC620020F8
:107EA0007862002068B130B5836CC16A426C013BD6
:107EB000914283B00446836400D023B1002003B014
:107EC00030BD00207047011D0846019100F0B6FE4C
:107ED0000A4A636C1068E3628342094888BF1360F2
:107EE000C3F1050503EB830300EB83000199A56152
:107EF00000F07CFE012003B030BD00BF8062002096
:107F0000086200202DE9F0431D4EDFF87C9085B01B
:107F10004FF000080CE0DB68DC681F68251D284670
:107F200000F08CFE636A20469847E369012B0AD073
:107F300033681A68002AEED1124A11683160136062
:107F400005B0BDE8F083A3693B449F42294610D3A6
:107F5000D9F80030002BEBD0CDE900870294FFF771
:107F600091FF0023D9F800001A46694600F03EFF51
:107F7000DEE730686360246100F048FED8E700BFA8
:107F80000063002004630020846500202DE9F04F89
:107F9000894E8A4CDFF82C82894DDFF82CA28BB0F9
:107FA0003368D3F800B0BBF1000F00F0A980DB68A4
:107FB000D3F800B0FFF7CAFBFFF7D0FB226882427C
:107FC000814600F2AE808345206040F2BF800022EF
:107FD0002868ABEB090101F027FAFFF767FC40B90D
:107FE0004FF08053CAF8043040BFBFF34F8FBFF348
:107FF0006F8F2868002202A901F0A8F80028CFD0CE
:10800000029B002B73DBDDF81090D9F814301BB104
:1080100009F1040000F012FEFFF7A0FB236898426C
:108020000746C0F08580029B2760092BE1D801A29A
:1080300052F823F05D8002005D8002005D80020046
:10804000F37F0200B7800200DF8002005D80020043
:108050005D800200F37F0200B78002000398D9F828
:108060001830C9F81090C2182CBF01210021BA4263
:10807000C9F804205FD8381A834228D8D9F82430A8
:1080800048469847D9F81C302868012BB2D10028FF
:10809000B0D0D9F81820039B00211344CDE907394B
:1080A0000691FFF7EFFE002328681A4606A900F0A4
:1080B0009DFE28689EE7039BC9F81090DA19BA4222
:1080C000C9F81830C9F8042039D8002B91D0D8F855
:1080D000000009F1040100F099FD28688AE799F889
:1080E0002C30002B85D1484600F000FE81E7039B31
:1080F000DDE904019847029B002BFFF67AAF82E787
:10810000FFF724FBFFF72AFB22689042814608D341
:10811000D8F80020C4F800901268B2FA82F252092E
:1081200056E7FFF7EFFEC4F80090FFF7BFFB60E7EC
:10813000FFF7E8FE77E7B84201D900299ED0306802
:1081400009F1040100F062FD286853E7FFF7AEFB78
:108150003268D268D768391D0846019100F06EFD7B
:10816000F8690199012803D07B6A3846984740E7AF
:10817000BA693F610BEB02004845786003D930686B
:1081800000F044FDF0E7A9EB0B039A420FD82B68EF
:10819000002BE9D00023CDE9063B0897FFF772FEDC
:1081A000002328681A4606A900F020FEDCE7D8F86C
:1081B000000000F02BFDD7E70063002030650020B1
:1081C000846500200463002000ED00E0F0B51F4C42
:1081D00089B000F091F82568F5B100F097F82068B3
:1081E000C0B1002407AA06A905A8CDE9054400F0FE
:1081F00095FBDDE905310222CDE900210293079AC2
:10820000134914482346FFF753F9134B1860001B1A
:1082100018BF012009B0F0BD104F114E384600F0D4
:10822000D5FC304600F0D2FC0E4A0F4900950F4BAA
:1082300017600E600E4A1021202000F065FD2060BE
:108240000028CAD00B4901F0DDF8C6E7846500209C
:1082500014BE02008D7F02008865002008650020A2
:108260001C650020006300200463002034650020AA
:10827000086300200CBE0200402383F31188FEE750
:1082800030B46FF00203084C40F80C4C4FF080758E
:1082900040F8045C40F8081C40F8202C40F8243CCE
:1082A00030BC4438704700BF798202000F4C08B5DB
:1082B000E02384F8223000F07BF80D4B0D4A0021BA
:1082C0001960D4F8883043F47003C4F888305368D8
:1082D00043F040435360236943F01003236100F0EF
:1082E00069F9402383F31188FEE700BF00ED00E049
:1082F0008C65002030EF00E0402383F31188024AB0
:1083000013680133136070478C650020034A1368BB
:10831000013B13600BB983F3118870478C65002013
:1083200041DF704712DF704770B51D4B00221A60A5
:1083300082B01B680193019BEFF31186402383F306
:1083400011881849184BD1F804451A601B6800932E
:10835000009BFFF703FA201A20F07F4323F001036C
:1083600020F07F459BB96C1E6DB10025FFF704FA24
:10837000013C631C45EA0005F8D125B10B4B4FF0D9
:1083800080525A6040BF86F3118802B070BDFFF77B
:1083900079FD0228E7D0FFF7EFF90546EDE700BFCA
:1083A00040110140001001400011014000ED00E0CB
:1083B0000B4B0C4930B41F200B4DC3F808050122AC
:1083C0000224E020C3F804232A601A60C3F844435F
:1083D00081F811034FF400330B6030BC704700BFCD
:1083E0000010014000E100E0081001402DE9F041DB
:1083F000054684B0EFF3108272B6634CA36883B96C
:10840000624B63480121A160D3F8801001402160D4
:10841000C3F88000D3F8841061604FF0FF31C3F8D7
:10842000841002B962B65B4ED6F80485FFF70EFDE4
:1084300078B3594F594AAF4228BF2F4607EB08037C
:1084400023F07F4301214FF0000CC6F80813C6F853
:108450004035C2F800C0136801934FF4803301988F
:10846000C6F80433BFF34F8F25BBC6F80833156039
:1084700012684B4B0392039A1D601B680293434B97
:10848000029AC6F804134FF40032D6F80415C3F864
:108490008021A3685BB1EFF3108272B63B4B216879
:1084A0001960616859600023A36002B962B604B024
:1084B000BDE8F081F1EE103A23F09F03E1EE103AAF
:1084C000F1EE103A314D4FF480634022C5F884211B
:1084D00003A8C5F884318DF80CC0FFF723FF9DF881
:1084E0000C30002B4DD12B4620BFD3F80011D3F810
:1084F00004210A43F8D0274B2848294A4FF48031F9
:10850000C3F808130021016000680390039811600C
:108510001268029201220299C3F80423D3F80435A9
:108520001A4AA3EB080828F07F48474528BF47466A
:108530004FF40033012FC2F8803120D9781EFFF7A5
:1085400013F9184BDB68DA010FD5174A1368DB07FC
:108550000BD5164B516803FB07F7A7F57427A7F552
:108560001077BF0A01EB87175760FFF705F900285E
:108570008FD00F4B4FF080525A6040BF89E7F4D044
:1085800087E7FFF7CDFEB6E7EC6B002000E100E0E7
:10859000FC06FFBD00100140FDFFFF00401101403F
:1085A00000110140F0ED00E0001000E040420F003B
:1085B00000ED00E00748006880F3088862B661B605
:1085C000BFF34F8FBFF36F8F4FF0E00080F3118840
:1085D00000DF00BF00700200064B19680868B0E8B1
:1085E000F04F80F30988BFF36F8F4FF0000080F3E6
:1085F00011887047FC610020EFF30980BFF36F8F93
:10860000144B1A681EF0100F08BF20ED108A20E9E5
:10861000F04F10604DF8043D4FF0400080F311889A
:10862000BFF34F8FBFF36F8FFFF79EFA4FF000003D
:1086300080F3118808BC19680868B0E8F04F1EF094
:10864000100F08BFB0EC108A80F30988BFF36F8F5A
:10865000704700BFFC610020704700BF0A490B4A09
:108660000B4B9B1A03DD043BC858D050FBDC094878
:1086700009494FF0AD32026004300439FBD100F0FB
:1086800073F8FEF7E5FD00006CC0020000600020FA
:10869000E061002000F8032000080000FEE7FEE78C
:1086A000FEE7FEE7FEE7FEE7FEE7FEE7FEE7FEE7A2
:1086B00008B50020AFF30080FEF704FE114BBBB1FC
:1086C000114B63B1FEF702FE00F006F9AFF3008034
:1086D000FEF7FCFD00F000F9AFF30080F2E7FEF7D3
:1086E000F5FD00F0F9F8FEF7F1FD00F0F5F8F6E71A
:1086F000FEF7ECFD00F0F0F8FEF7E8FD00F0ECF816
:10870000F6E700BF000000000000000000B583B0E5
:1087100000F07AF9FEF7EEFD0E4B019301230E49AE
:1087200000934FF4806200230C48FEF731FF4FF4B2
:10873000407000F045F9FEF7A3FFBFF34F8F0849E3
:10874000084BCA6802F4E0621343CB60BFF34F8F5B
:1087500000BFFDE7906500201CBE0200B18602004C
:1087600000ED00E00400FA05534B1B685A1C16D0BC
:10877000524A082B12680ED0514AD2F8883043F47E
:108780007003C2F88830BFF34F8FBFF36F8F4D4B2C
:108790004D4A1A607047032A2CD9082288E04B4AB8
:1087A0004B4B12781B68082A4FEA1313E4D113F0DD
:1087B0000C0F1FD0454A464B12781B68082A4FEA17
:1087C0001313D9D113F00C0F27D0414B3F4A1B682C
:1087D0001278C3F30313082ACED1032BCCD84FF061
:1087E0008043D3F80024D20744BF6FF00102C3F8DE
:1087F0000024C1E7304A11684FF080430022481C32
:10880000C3F80C21C3F81021C3F83825D2D02B4B64
:1088100008291A68B0D1032ABFD84FF080522D4BD7
:10882000D2F80414C3F82015D2F80814C3F824159C
:10883000D2F80C14C3F82815D2F81014C3F82C156C
:10884000D2F81414C3F83015D2F81814C3F834153C
:10885000D2F81C14C3F84015D2F82014C3F84415FC
:10886000D2F82414C3F84815D2F82814C3F84C15CC
:10887000D2F82C14C3F85015D2F83014C3F854159C
:10888000D2F83414C3F86015D2F83814C3F864155C
:10889000D2F83C14C3F86815D2F840140648C3F85F
:1088A0006C15D2F844140268C3F87015511C8CD0B2
:1088B000024B1B688FE700BF30010010340100102D
:1088C00000ED00E0006000200090D003E00F00F019
:1088D000E80F00F000C0004008B5AFF30080054B82
:1088E0004FF080525A6040BFBFF34F8FBFF36F8F7E
:1088F00008BD00BF00ED00E0704700BF704700BF3B
:10890000044B036010B46423034C0C605DF8044B0B
:108910001360704794650020E8650020054B0360F4
:1089200010B44FF48073044C0C605DF8044B13607A
:10893000704700BF78670020CC67002070B51F4DDE
:1089400084B028684FF0FF3203A900F0FFFB002835
:10895000F7D0039C237A6668052B0CD8DFE803F078
:108960002629211B1403D4E90523D4E90301E46972
:108970000094B047039C206810B100F08DF9039C6F
:10898000204600F089F9DCE7D4E90523D4E90301A6
:10899000B047039CEFE7D4E90412E068B047039CBA
:1089A000E9E7D4E90301B047039CE4E7B047039C3F
:1089B000E1E7E068B047039CDDE700BFD06B002033
:1089C00070B540230B4D82B00446002218460421A6
:1089D0002B6000F0C9F9084D084B019306460223AD
:1089E000009307492E60A2B200230648FEF7D0FD8F
:1089F00002B070BDCC6B0020D06B0020D46B002087
:108A000024BE02003D8902004FF08043194AD3F88A
:108A10000014194830B41160D3F80054D3F800247E
:108A2000164C17492A43C3F80024D4F840250260A5
:108A300001224FF40030C3F818259A60C1F8800075
:108A4000BFF34F8FBFF36F8F0E4C03F588334FF09A
:108A5000A0454FF480304FF0FF31C3F84803C3F80E
:108A600008035A609A60C5F80815C4F8081530BCA8
:108A7000704700BFD86B0020DC6B002000A00040D6
:108A800000E100E00003005020281BD83C4B53F8C5
:108A900020301F2B86BF3B4A03F01F034FF0A0423C
:108AA0000E290FD8DFE801F0655F59534D47403973
:108AB000322B241D160F080003F5E07340F20371FA
:108AC00042F82310704703F5E07340F2036142F867
:108AD0002310704703F5E07340F2035142F823106E
:108AE000704703F5E07340F2034142F823107047EA
:108AF00003F5E07340F2033142F82310704703F5A9
:108B0000E07340F2032142F82310704703F5E0734D
:108B100040F2031142F82310704703F5E0734FF45D
:108B2000403142F82310704703F5E0734FF40031F1
:108B300042F82310704703F5E073134942F82310FD
:108B4000704703F5E073114942F82310704703F5AD
:108B5000E073042142F82310704703F5E0730C2101
:108B600042F82310704703F5E073032142F8231005
:108B7000704703F5E073002142F82310704700BFEF
:108B800088BD020000030050040002000C00030036
:108B900020280FD80B4B53F820301F2B86BF0A4AD2
:108BA00003F01F034FF0A04229B1012101FA03F3A2
:108BB000C2F808357047012101FA03F3C2F80C35F9
:108BC000704700BF88BD02000003005000F1080399
:108BD0004FF0FF310022C0E903338160026043603F
:108BE000704700BF00230361704700BF43680268FD
:108BF00010B49C688C609C684B6001326160996025
:108C00005DF8044B08610260704700BF30B40D6826
:108C10006B1C10D000F108031C465B681A68AA425E
:108C2000FAD902684B60013299608C60616008611A
:108C300030BC0260704704696368F2E7036910B4EE
:108C4000D0E901125C688A608442516008BF5A60B2
:108C50001A685DF8044B0021013A01611A60186836
:108C6000704700BF10B50446FFF70CF9022804D086
:108C70002046BDE8104000F0F1BDFEF767FD20463C
:108C800000F0ECFD0446FEF711FE0CB1204610BDCD
:108C9000FFF734FEFAE700BF10B50446FFF7F2F81D
:108CA00002280AD144B1FEF751FD204600F0DEFD56
:108CB000BDE81040FEF7FABD10BD2046BDE81040EB
:108CC00000F0D4BD10B582B00190FEF73FFD0198D1
:108CD00000F0C4FD0446FEF7E9FD14B1204602B0E1
:108CE00010BDFFF70BFE204602B010BD50B110B50D
:108CF0000446FEF72BFD204600F0B8FDBDE810400D
:108D0000FEF7D4BD704700BF38B51C469DF8105023
:108D100043B3002908BF1A460123C4E90F012260AA
:108D200084F84630FFF7E8FAD4E90F132268A2600E
:108D300001FB03F1CB1A134400200A44FF21A06376
:108D4000E36084F84410626084F8451004F1100078
:108D5000FFF73CFF04F12400FFF738FFFFF7D6FAD6
:108D600084F84C50204638BDF8B5064617460D46E7
:108D700069B100FB01F05030FFF7A4FF044690B347
:108D8000002200F1500380F84620036007E05020E5
:108D9000FFF798FF044630B384F846502460C4E9D6
:108DA0000F65FFF7A9FAD4E90F132268A26001FB4F
:108DB00003F1CB1A134400200A44FF21A063E360AF
:108DC00084F84410626084F8451004F11000FFF745
:108DD000FDFE04F12400FFF7F9FEFFF797FA84F88F
:108DE0004C702046F8BD00242046F8BD2DE9F04720
:108DF000044684B01F460192884600F12406FFF71E
:108E00007BFAA26BE36BDFF840939A424FF0000AC3
:108E10007CD3022F00F0E880019D002D00F012812C
:108E200002ADBAF1000F00F0DB80FFF76FFAFEF73A
:108E30008DFCFFF761FA94F84430FF2B04BF002348
:108E400084F8443094F84530FF2B04BF002384F8A5
:108E50004530FFF75BFA284601A9FEF7BDFF002861
:108E600040F0F680FFF748FAA26BE36B9A4261D0BC
:108E7000FFF74CFAFFF740FA94F845506DB2002D19
:108E800005DC12E06B1E13F0FF0F5DB20DD0636ABC
:108E9000304653B1FEF742FF0028F3D0FEF7D0FF73
:108EA0006B1E13F0FF0F5DB2F1D1FF2384F8453044
:108EB000FFF72CFAFFF720FA94F844506DB2002D1A
:108EC00015DD04F1100A04E06B1E13F0FF0F5DB214
:108ED0000DD02369504653B1FEF720FF0028F3D090
:108EE000FEF7AEFF6B1E13F0FF0F5DB2F1D1FF2353
:108EF00084F84430FFF70AFAFEF7D8FCFFF7FCF9D4
:108F0000A26BE36B9A424FF0010A82D2226CA56BEE
:108F1000002A40F0E7802668002E00F0F980013535
:108F2000A563636A002B7CD1FFF7F0F9012004B040
:108F3000BDE8F08704F1100AFFF7E8F901995046FF
:108F4000FEF770FEFFF7D8F994F845506DB2002D8A
:108F500005DC12E06B1E13F0FF0F5DB20DD0636AEB
:108F6000304653B1FEF7DAFE0028F3D0FEF768FF73
:108F70006B1E13F0FF0F5DB2F1D1FF2384F8453073
:108F8000FFF7C4F9FFF7B8F994F844506DB2002D1B
:108F900005DC12E06B1E13F0FF0F5DB20DD02369EC
:108FA000504653B1FEF7BAFE0028F3D0FEF748FF53
:108FB0006B1E13F0FF0F5DB2F1D1FF2384F8443034
:108FC000FFF7A4F9FEF772FC002897D14FF0805309
:108FD000C9F8043040BFBFF34F8FBFF36F8F8DE7E9
:108FE0002846FEF7EDFE20E7226CA56B002A92D002
:108FF0004146E06800F042FC226CE36821689B1A5D
:109000008B42E360C2F1000204D263681A44E2605A
:10901000022F84D1002D83D10123A363636A002B27
:1090200082D004F12400FEF779FE00283FF47CAFE3
:10903000454B4FF080525A6040BFBFF34F8FBFF394
:109040006F8F71E7FFF762F9284604B0BDE8F0873B
:10905000FFF752F994F845506DB2002D15DD04F17B
:10906000240604E06B1E13F0FF0F5DB20DD0636A9F
:10907000304653B1FEF752FE0028F3D0FEF7E0FE73
:109080006B1E13F0FF0F5DB2F1D1FF2384F8453062
:10909000FFF73CF9FFF730F994F844506DB2002D1A
:1090A00015DD04F1100604E06B1E13F0FF0F5DB236
:1090B0000DD02369304653B1FEF730FE0028F3D0BF
:1090C000FEF7BEFE6B1E13F0FF0F5DB2F1D1FF2362
:1090D00084F84430FFF71AF9FEF7E8FB002004B0EB
:1090E000BDE8F087414607BBA06800F0C7FBA36856
:1090F000216C62680B449342A360FFF410AF01350A
:10910000A563636A2268A260002B3FF40DAF88E775
:1091100060680135FEF7C6FEA563636A6660002BD2
:109120007FF47FAF002883D1FEE6E06800F0A6FB65
:10913000226CE36821689B1A8B42E360C2F1000253
:10914000BFF466AF61E700BF00ED00E02DE9F0433A
:10915000044685B00F460192FFF7CEF8A56B002DAF
:1091600040F02781019B002B00F0D28002A8FEF77F
:1091700027FEDFF88C8204F12406FFF7C7F8FEF71C
:10918000E5FAFFF7B9F894F84430FF2B04BF002349
:1091900084F8443094F84530FF2B04BF002384F852
:1091A0004530FFF7B3F801A902A8FEF715FE002825
:1091B0005BD1FFF7A1F8A36B002B40F0AF80FFF766
:1091C000A5F801993046FEF72DFDFFF795F894F8C4
:1091D00045506DB2002D05DC12E06B1E13F0FF0F41
:1091E0005DB20DD0636A304653B1FEF797FD00289B
:1091F000F3D0FEF725FE6B1E13F0FF0F5DB2F1D129
:10920000FF2384F84530FFF781F8FFF775F894F8ED
:1092100044506DB2002D15DD04F1100904E06B1E01
:1092200013F0FF0F5DB20DD02369484653B1FEF72E
:1092300075FD0028F3D0FEF703FE6B1E13F0FF0F41
:109240005DB2F1D1FF2384F84430FFF75FF8FEF7F9
:109250002DFB002853D14FF08053C8F8043040BF95
:10926000BFF34F8FBFF36F8F49E0FFF745F894F8D6
:1092700045506DB2002D05DC12E06B1E13F0FF0FA0
:109280005DB20DD0636A304653B1FEF747FD00284A
:10929000F3D0FEF7D5FD6B1E13F0FF0F5DB2F1D1D9
:1092A000FF2384F84530FFF731F8FFF725F894F8ED
:1092B00044506DB2002D15DD04F1100904E06B1E61
:1092C00013F0FF0F5DB20DD02369484653B1FEF78E
:1092D00025FD0028F3D0FEF7B3FD6B1E13F0FF0F42
:1092E0005DB2F1D1FF2384F84430FFF70FF8FEF7A9
:1092F000DDFAFFF701F8A36B53B1FFF707F8FEF7AC
:10930000FBFFA56B002D54D1019B002B7FF435AFE3
:10931000FEF7FCFF002005B0BDE8F083FEF7F6FF86
:10932000FEF7EAFF94F845506DB2002D05DC12E01F
:109330006B1E13F0FF0F5DB20DD0636A304653B160
:10934000FEF7ECFC0028F3D0FEF77AFD6B1E13F05D
:10935000FF0F5DB2F1D1FF2384F84530FEF7D6FF51
:10936000FEF7CAFF94F844506DB2002D15DD04F1EC
:10937000100904E06B1E13F0FF0F5DB20DD02369DE
:10938000484653B1FEF7CAFC0028F3D0FEF758FD5B
:109390006B1E13F0FF0F5DB2F1D1FF2384F8443050
:1093A000FEF7B4FFFEF782FAFEF7A6FFA56B002DCD
:1093B000AAD0226C52B1E168636811449942E1601D
:1093C00024BF2168E160384600F058FA013DA563EA
:1093D00023692BB9FEF79AFF012005B0BDE8F083A1
:1093E00004F11000FEF79AFC0028F3D0044B4FF074
:1093F00080525A6040BFBFF34F8FBFF36F8FE9E7D2
:1094000000ED00E0074B1A681AB19A6802B1704784
:10941000012210B403EBC20443F8321060605DF81F
:10942000044B7047F86B002070B504460E46154695
:10943000FEF762FF94F84430FF2B04BF002384F84A
:10944000443094F84530FF2B04BF002384F84530A6
:10945000FEF75CFFA36B002B45D0FEF74DFF94F8A1
:1094600045506DB2002D15DD04F1240604E06B1E9D
:1094700013F0FF0F5DB20DD0636A304653B1FEF7B3
:109480004DFC0028F3D0FEF7DBFC6B1E13F0FF0F42
:109490005DB2F1D1FF2384F84530FEF737FFFEF7C8
:1094A0002BFF94F844506DB2002D15DD04F1100629
:1094B00004E06B1E13F0FF0F5DB20DD02369304640
:1094C00053B1FEF72BFC0028F3D0FEF7B9FC6B1E5E
:1094D00013F0FF0F5DB2F1D1FF2384F84430BDE8F3
:1094E0007040FEF713BF2A46314604F12400FEF710
:1094F000D5FBB2E753B94AB9002908BF00281CBF01
:109500004FF0FF314FF0FF3000F06EB9ADF1080CB5
:109510006DE904CE00F006F8DDF804E0DDE9022391
:1095200004B070472DE9F047089D04468C46002B97
:1095300040F083808A42174647D9B2FA82F242B19C
:10954000C2F1200024FA00F09140974040EA010C5B
:1095500094404FEA1748230CBCFBF8F61FFA87FE2D
:1095600008FB16C143EA014306FB0EF1994209D9F3
:10957000FB1806F1FF3080F01981994240F2168104
:10958000023E3B445B1AA4B2B3FBF8F008FB103375
:1095900044EA034400FB0EFEA64509D93C1900F13C
:1095A000FF3380F00581A64540F2028102383C4439
:1095B00040EA0640A4EB0E0400261DB1D44000236F
:1095C000C5E900433146BDE8F08702B9FFDEB2FAD3
:1095D00082F2002A50D1CB1B4FEA174E1FFA87F8B0
:1095E0000126B3FBFEFC210C0EFB1C3341EA0341B8
:1095F00008FB0CF38B4207D979180CF1FF3002D22B
:109600008B4200F2E9808446C91AA3B2B1FBFEF096
:109610000EFB101143EA014408FB00F8A04507D9EE
:109620003C1900F1FF3302D2A04500F2D980184660
:10963000A4EB080440EA0C40BFE78B4209D9002D97
:1096400000F0B1800026C5E9000130463146BDE892
:10965000F087B3FA83F6002E4AD18B4202D38242BE
:1096600000F2B880841A61EB030101208C46002DC2
:10967000A8D0C5E9004CA5E7C2F1200320FA03F603
:10968000974001FA02F04FEA174ED9403043030CDD
:10969000B1FBFEF61FFA87F80EFB161143EA0143F1
:1096A00006FB08F1994204FA02F409D9FB1806F105
:1096B000FF3C80F08D80994240F28A80023E3B441C
:1096C0005B1A81B2B3FBFEF00EFB103341EA03419B
:1096D00000FB08F38B4207D9791800F1FF3C73D2E5
:1096E0008B4271D902383944CB1A40EA064678E7F2
:1096F000C6F1200C03FA06F422FA0CF31C4320FAFC
:109700000CF701FA06F34FEA144E21FA0CF11F434D
:109710003B0CB1FBFEF91FFA84F80EFB191143EA6A
:10972000014109FB08FA8A4502FA06F200FA06F33B
:1097300008D9611809F1FF3048D28A4546D9A9F104
:1097400002092144A1EB0A01BFB2B1FBFEF00EFBFE
:10975000101147EA014700FB08F8B84507D9E71997
:1097600000F1FF312ED2B8452CD90238274440EA07
:109770000940A7EB0807A0FB02894F45C6464946AA
:109780001AD317D05DB1B3EB0E0267EB010707FAEE
:109790000CFCF2404CEA0202F740C5E90027002623
:1097A0003146BDE8F0872E4628460BE70646E9E637
:1097B0001846FDE64345E5D2B8EB020E69EB04011D
:1097C0000138DFE70846D2E760468DE78146B9E712
:1097D000664675E730464AE7ACF1020C394413E7B8
:1097E00002383C4424E700BF704700BF08B5074B70
:1097F000044613B10021AFF30080054B1868836A5B
:1098000003B19847204602F0B1FA00BF0000000003
:1098100030BE020070B50D4D0D4C641BA410002627
:10982000A64209D10B4D0C4C02F0A2FA641BA41005
:109830000026A64205D170BD55F8043B9847013675
:10984000EEE755F8043B98470136F2E7D461002073
:10985000D4610020D4610020DC610020024B01466D
:10986000186800F071B800BF04600020024B014688
:10987000186800F019B800BF046000200A44914243
:1098800000F1FF3300D1704710B511F8014B03F818
:10989000014F9142F9D110BD02440346934200D1D9
:1098A000704703F8011BF9E737B5002948D051F894
:1098B000043C0190002BA1F10404B8BFE41801F0AE
:1098C00069FA204A01981368154633B96360146039
:1098D00003B0BDE8304001F063BAA3420BD9216860
:1098E0006218934204BF1A685B68636004BF521831
:1098F00022602C60ECE71A465B680BB1A342FAD9F0
:1099000011685518A5420BD1246821445418A3426C
:109910001160DDD11C685B68536021441160D7E79A
:1099200002D90C230360D3E7256861198B4204BF79
:1099300019685B68636004BF491921605460C7E718
:1099400003B030BDE06B0020F8B5CD1C25F0030559
:1099500008350C2D38BF0C25002D064601DBA94229
:1099600003D90C2333600020F8BD01F013FA21491C
:109970000A6814469CB9204F3B6823B921463046FB
:1099800000F080FB38602946304600F07BFB431C2A
:1099900023D10C233360304601F002FAE3E7236859
:1099A0005B1B17D40B2B03D923601C44256004E0F8
:1099B0006368A2420CBF0B605360304601F0F0F9BF
:1099C00004F10B00231D20F00700C21ACCD01B1A93
:1099D000A350C9E722466468CCE7C41C24F0030402
:1099E000A042E3D0211A304600F04CFB0130DDD11B
:1099F000CFE700BFE06B0020E46B00202DE9FF47BC
:109A000055EC104B002D0E4619462B46BBBF05F1F9
:109A100000431D4600232D230B700D9BDDF830A065
:109A2000914623F02008BCBF22461446B8F1460FE9
:109A300005D0B8F1450F00D10136022100E0032125
:109A400003AB019302AB009345EC104B53463246F7
:109A500000F0BEFBB8F1470F074602D119F0010F25
:109A600022D0B8F1460F07EB060910D13B78302B16
:109A70000AD1002200232046294602F0F9F818B93D
:109A8000C6F10106CAF80060DAF8003099440022F5
:109A900000232046294602F0EBF808B1CDF80C90DF
:109AA0003022039B4B4507D3039B0E9ADB1B3846A2
:109AB000136004B0BDE8F087591C03911A70F0E7F9
:109AC000F7B503460029B8BF494203F8022BB4BFDB
:109AD0002D222B22092942702ADD0DF10704A4460C
:109AE0000A27A6460A4691FBF7F607FB16153035FE
:109AF000632A04F1FF340EF8015C3146F1DC3031A9
:109B0000AEF1020504F8011C441C294661450AD344
:109B10000DF10902A2EB0E02654588BF0022134435
:109B2000181A03B0F0BD11F8012B04F8012FEDE76E
:109B3000302330318370C170031DF1E72DE9F04F00
:109B40002DED028B8DB00C46DDF8608016461F4669
:109B5000054601F01BF9D0F800A0504600F0A2FA2B
:109B600000230A9323680593D8F8003094F818B0BE
:109B7000073323F0070303F10802C8F80020D3E9F4
:109B80000023C4E91223D4E9128929F00043079382
:109B9000CDF8188008EE100A9F4BDDE906014FF062
:109BA000FF3202F097F888BBDDE906019A4B4FF0CF
:109BB000FF3202F071F848BB0022002340464946BC
:109BC00002F060F810B12D2384F84330934B944891
:109BD000BBF1470F94BF9846804603232361059B42
:109BE00023F0040222604FF00009009733460BAACD
:109BF0002146284600F0D8F9013040F090804FF01F
:109C0000FF300DB0BDEC028BBDE8F08F42464B46F5
:109C10004046494602F05EF840B14B46002BBCBFBF
:109C20002D2384F843307F487F4BD1E763680BF0E6
:109C3000DF0206925A1C3FD106236360059B6168D0
:109C400043F48062002303930AABCDE901B309AB6F
:109C500049EC108B009322600DF123032846FFF797
:109C6000CDFE069B0999472B804608D1C81C02DB14
:109C70006368994241DDABF1020B5FFA8BFBBBF1EC
:109C8000650F20D801395A4604F150000991FFF7B9
:109C900017FF0A9A1318012A8146236102DC226801
:109CA000D20701D5013323619DF82330002B9CD0CE
:109CB0002D2384F8433098E7069A472ABED1002B1B
:109CC000BCD10123B9E7BBF1660F18D10029636845
:109CD0000BDD216113B92268D00702D501330B4493
:109CE0002361A1654FF00009DEE713B92268D207AE
:109CF00001D50233F4E70123F2E74FF0670B0A9B2B
:109D0000994205DB23682161D807EAD54B1CE7E7B8
:109D10000029D4BFC1F1020201221344E0E7236805
:109D20005A0507D42369424631462846B8470130D0
:109D30002CD164E7BBF1650F40F2E080D4E9120159
:109D40000022002301F094FF002834D0374A012379
:109D500031462846B84701303FF451AFDDE90923C9
:109D60009A4202DB2368D80710D518EE103A524603
:109D700031462846B84701303FF441AF4FF0000864
:109D800004F11A090A9B013B434509DC23689B0740
:109D900000F10581E0680B9B9842B8BF184630E798
:109DA00001234A4631462846B84701303FF427AFE1
:109DB00008F10108E6E7099B002B39DC1B4A012367
:109DC00031462846B84701303FF419AFDDE9092391
:109DD000134302D12368D907D8D518EE103A52465A
:109DE00031462846B84701303FF409AF4FF000092B
:109DF00004F11A0A099B5B424B4501DC0A9B92E77E
:109E00000123524631462846B84701303FF4F7AEA9
:109E100009F10109EEE700BFFFFFEF7F34BE02004A
:109E200038BE020040BE02003CBE020044BE02003A
:109E30000A9AA36D9A42A8BF1A46002A914637DCB7
:109E40004FF0000B29EAE97904F11A02A36D05939A
:109E5000A3EB09035B4533DCDDE909239A423BDBD5
:109E60002368DA0738D40A9A059B0999D31AA2EB1A
:109E700001099945A8BF9946B9F1000F35DC4FF0AB
:109E8000000829EAE97904F11A0ADDE909239B1A95
:109E9000A3EB090343457FF779AF012352463146CF
:109EA0002846B84701303FF4AAAE08F10108ECE7B4
:109EB0001346314642462846B8470130C0D19EE697
:109EC0000123314628460592B84701303FF497AE4A
:109ED000059A0BF1010BB9E718EE103A52463146DC
:109EE0002846B8470130BED189E6059A4B46424420
:109EF00031462846B8470130C1D180E60A9A012A86
:109F000001DCDB0738D50123424631462846B847F5
:109F100001303FF474AE18EE103A524631462846EE
:109F2000B84701303FF46BAED4E9120100220023A0
:109F300001F09EFED8B90A9B08F10102013B3146AF
:109F40002846B84701300ED159E601235246314622
:109F50002846B84701303FF452AE08F101080A9B89
:109F6000013B4345F1DC4B4604F15002DCE64FF087
:109F7000000804F11A0AF2E701234246DFE7012351
:109F80004A4631462846B84701303FF438AE08F11A
:109F90000108E3680B995B1A4345F0DCFAE64FF0E1
:109FA000000804F11909F4E72DE9F047164699462F
:109FB0008A680B69DDF820809342B8BF134633608E
:109FC00091F8432007460C460AB1013333602368F9
:109FD000990642BF336802333360256815F00605E1
:109FE00006D104F1190AE36832689B1AAB4226DCF9
:109FF00094F84320131E226818BF012392062BD425
:10A0000004F1430249463846C04701301ED0236858
:10A01000E568326803F00603042B08BFAD1AA36895
:10A0200022690CBF25EAE57500259342C4BF9B1A3F
:10A03000ED1800261A34B5421AD1002008E0012399
:10A04000524649463846C047013003D14FF0FF30F1
:10A05000BDE8F0870135C6E7E1185A1C302081F8C9
:10A060004300224494F8451082F843100233C7E7B6
:10A070000123224649463846C0470130E6D0013622
:10A08000D9E7000038B5064D0023044608462B608A
:10A0900001F05EFE431C02D12B6803B1236038BD82
:10A0A000086C0020034613F8012B002AFBD1181A74
:10A0B000013870472DE9F74F03690C69A342074641
:10A0C000C0F28180013C01F1140800F1140505EB98
:10A0D0008403019358F8243055F8242001339A4220
:10A0E0004FEA840B08EB8409B2FBF3F631D34FF04F
:10A0F000000E4046AC46F24650F8042B93B206FBE5
:10A1000003E34FEA134E9BB2AAEB0303120CDCF8F5
:10A1100000A006FB02E213FA8AF34FEA124E1FFA7E
:10A1200082FADCF80020CAEB124202EB23429BB217
:10A1300043EA024381454CF8043B4FEA224ADBD212
:10A1400055F80B302BB9019B043B9D421A462ED388
:10A150003C61384601F055F8002824DB01362846DA
:10A160004FF0000C58F8042BD0F800E093B2ACEBA1
:10A170000303120C13FA8EF3C2EB1E4202EB2342CE
:10A180009BB243EA0243C14540F8043B4FEA224CEC
:10A19000E8D255F8242005EB840322B9043B9D4204
:10A1A0001A460AD33C61304603B0BDE8F08F12680E
:10A1B000043B002ACCD1013CC7E71268043B002ACB
:10A1C000F0D1013CEBE70020EEE7000000000000CA
:10A1D0002DE9F04F2DED028B57EC106B95B0456AD1
:10A1E000DDF880800591CDE90267044609920F935E
:10A1F0003DB91020FEF736FDC0E9015560620560EB
:10A20000C560636A196851B15A684A600123934076
:10A210008B60204600F0FEFD636A00221A603B1E40
:10A22000B9BF23F0004303930023C8F80030DDF8E2
:10A230000C90B74BBCBF0122C8F8002033EA0903D9
:10A240001BD10F9A42F20F731360C9F31303334308
:10A2500000F07585219B63B9AE4B25E0AE4B0093B2
:10A260000833219A1360009815B0BDEC028BBDE84D
:10A27000F08FA84B00930333F3E79DED027B0022A0
:10A2800051EC170B00238DED0A7B01F0F1FC8046A9
:10A2900060B10F9A01231360219B002B00F04C85C5
:10A2A0009E4B219A1360013B0093DCE79DED0A0B66
:10A2B00012AA13A9204601F036F8C9F30A558246BE
:10A2C000002D7ED00B9BCDF84080C3F31303DDE956
:10A2D0000A6743F07F5747F44017A5F2FF35904BCC
:10A2E00000223046394601F0A3F883A3D3E90023C6
:10A2F00001F056FA82A3D3E9002301F09BF8064649
:10A3000028460F4601F0E2F97FA3D3E9002301F0CC
:10A3100047FA02460B463046394601F08BF80646AE
:10A320000F4601F0EDFC00228146002330463946FD
:10A3300001F0A8FC48B1484601F0C8F932463B4656
:10A3400001F096FC08B909F1FF39B9F1160F56D89A
:10A35000744B03EBC903D3E90023DDE90A0101F0E3
:10A3600091FC00284DD009F1FF3900230E93129B78
:10A370005D1B6B1E049343BF0023C5F101080493CA
:10A380004FF00008B9F1000F3DDB049BCDF834908D
:10A390004B44049300230693059B092B00F29A80FB
:10A3A000052BC4BF043B0593059BA3F10203CCBF5F
:10A3B00000250125032B00F29980DFE803F02C7DB6
:10A3C0007B89DDE912531D4405F23243202BC1BFC6
:10A3D000C3F1400305F2124009FA03F326FA00F034
:10A3E000DABFC3F1200306FA03F0184301F05EF967
:10A3F00001230646A1F1F877013D10936FE7012391
:10A40000B4E70E90B3E7C9F1000306930023A8EB6D
:10A4100009080D93C0E700230893099B002B00F364
:10A4200085804FF0010BCDF804B05B46CDF824B029
:10A43000666A00227260042202F114009842716878
:10A440007AD9204600F0B2FC636A30601B68009342
:10A45000019B0E2B00F2F580002D00F0F280B9F187
:10A46000000F7DDD2F4A09F00F0302EBC30393EDCC
:10A47000007B19F4807F4FEA2917B0EE478AF0EE8F
:10A48000678A5DD0284BDDE90A01D3E9082301F092
:10A49000B1FACDE9020107F00F070325224E002F84
:10A4A00050D1DDE9020153EC182B01F0A3FACDE9FC
:10A4B00002016FE00123AFE700230893099B09EB3A
:10A4C000030B0BF10103012B0193B8BF0123AFE78D
:10A4D0000123F2E701250023059308954FF0FF3B88
:10A4E0000022CDF804B012230992A1E701230893BA
:10A4F000F4E700BFAFF3008061436F63A787D23FEB
:10A50000B3C8608B288AC63FFB799F501344D33F62
:10A510000000F07F4FBE020046BE020045BE0200B2
:10A520000000F83F80BE020058BE0200DDF824B0F3
:10A53000CDF804B05B467BE70131716052007BE7E8
:10A540000225ABE7F90708D551EC180BD6E9002333
:10A5500001F026F941EC180B01357F1008369EE713
:10A5600000F0AB80C9F10006AA4BAB4F06F00F021A
:10A5700003EBC203D3E90023DDE90A0101F010F97E
:10A58000CDE90201361100230225002E40F08A8019
:10A59000002B8CD10E9B002B00F09180DDE902672F
:10A5A0009E4B00223046394601F06CFB002800F03B
:10A5B0008680019B002B00F08280BBF1000F3CDD08
:10A5C00009F1FF3307930022954B3046394601F0DD
:10A5D000E7F8CDE902010135CDF830B0DDE90267D9
:10A5E000284601F073F832463B4601F0D9F88D4B0E
:10A5F000002200F01FFFA1F15073CDE90201039387
:10A600000C9B002B60D1884B00223046394600F06D
:10A610000FFFDDE9022306460F4601F051FB00283B
:10A6200040F09982DDE90221304601F100433946CC
:10A6300001F028FB002840F08B82DDE90A23CDE9F8
:10A640000223139B002BC0F25B81B9F10E0F00F3C4
:10A650005781704B03EBC90393ED007B099BB0EE70
:10A66000478AF0EE678A002B80F2E280019B002B84
:10A6700000F3DE8040F06C826B4B51EC170B002234
:10A6800001F08EF8DDE9022301F010FB019E374650
:10A69000002840F04282009D312305F8013B09F17A
:10A6A00001093EE2F20705D5D7E9002301F078F869
:10A6B000013501237610083767E702256AE7019B19
:10A6C000CDF81C900C9389E700990C980C9A514B8B
:10A6D0009DED027B014402910899B0EE478AF0EEAD
:10A6E000678A03EBC20353E90223002945D04F498F
:10A6F000002001F07FF953EC182B00F099FE009D2B
:10A7000041EC180B3946304601F0FAFA0C9000F093
:10A71000DDFF02460B463046394600F089FE0C9BB1
:10A72000303305F8013B53EC182B06460F4601F079
:10A73000A9FA002865D132463B463849002000F08E
:10A7400077FE53EC182B01F09DFA002840F0B880FA
:10A75000029B9D423FF471AF314B51EC180B00222C
:10A7600001F01EF82E4B41EC180B00223046394602
:10A7700001F016F806460F46C4E751EC170B01F03E
:10A780000FF8029B009D0C9341EC180B39463046A4
:10A7900001F0B6FA119000F099FF02460B463046E0
:10A7A000394600F045FE119B303305F8013B029B12
:10A7B0009D4206460F464FF0000225D11B4B51EC3F
:10A7C000180B00F037FE02460B463046394601F0C2
:10A7D00077FA002874D153EC182B1449002000F0AC
:10A7E00027FE02460B463046394601F04BFA002858
:10A7F0003FF423AF0C9D6B1E0C9315F8013C302BDE
:10A80000F8D0DDF81C9049E0054B00F0C9FF064682
:10A810000F46BBE780BE020058BE02000000F03FBA
:10A820000000244000001C40000014400000E03FF5
:10A83000DDE90267009D53EC182B3046394601F0E4
:10A84000D9F801F05DFA804600F040FF53EC182B78
:10A8500000F0A6FF02460B463046394608F13006A6
:10A8600000F0E6FD05F8016B009E019FAE1BB742AC
:10A8700002460B4637D100F0DDFD53EC182B06469F
:10A880000F4601F01DFAC8B953EC182B3046394673
:10A8900001F0EEF910B118F0010F0FD1204651462A
:10A8A00000F0B8FA00232B700F9B09F1010018602B
:10A8B000219B002B3FF4D7AC1D60D4E4CDF81C9055
:10A8C0002B461D4613F8012D392A08D1009A9A42C9
:10A8D000F7D1079A00990132079230220A701A784C
:10A8E00001321A708DE79E4B002200F059FF0022C2
:10A8F000002306460F4601F0BBF900289BD0CDE7A8
:10A90000089A002A00F0C680059A012A00F3AA805E
:10A91000109A002A00F0A28003F23343069E4546B7
:10A92000049A01211A4420469844049200F017FB2F
:10A930000746002D0BDD049B002B08DDAB42049A7B
:10A94000A8BF2B46A8EB0308ED1AD31A0493069B65
:10A95000FBB1089B002B00F0A180002E11DD3946D1
:10A960003246204600F0A0FB5246014607462046EC
:10A9700000F0FEFA51460790204600F04BFA079B84
:10A980009A46069B9A1B04D05146204600F08CFB49
:10A9900082460121204600F0E2FA0D9B002B06467C
:10A9A0007EDD1A460146204600F07EFB059B012B0A
:10A9B000064678DD00230693336906EB83031869A6
:10A9C00000F07DFAC0F12000049B184410F01F0035
:10A9D00000F08880C0F12003042B40F38180C0F197
:10A9E0001C00049B0344804405440493B8F1000F09
:10A9F00005DD51464246204600F0A4FB8246049BFA
:10AA0000002B05DD31461A46204600F09BFB06462A
:10AA10000E9B002B68D03146504600F0F2FB002818
:10AA200062DA002351460A22204600F00AFA089B07
:10AA300009F1FF398246002B00F088813946002356
:10AA40000A22204600F0FDF9BBF1000F074600F393
:10AA50008F80059B022B40F38B804DE0129BC3F14E
:10AA600036035BE7019B5E1E069BB342BFBF069B9E
:10AA70000696F21A0D9BB6BF9B189E1B0D93019B69
:10AA8000B8BF0026002BB5BFA8EB0305019B002330
:10AA9000454645E7069E089F45464AE7069A73E7FE
:10AAA000059B012B18DC029BB3B9039BC3F3130373
:10AAB000A3B9039B23F000431B0D1B052BB1049B83
:10AAC0000133049308F10108012306930D9B002B29
:10AAD0007FF472AF012077E70023F6E7029BF4E7EB
:10AAE00084D018461C307CE7019B002B3ADC059B88
:10AAF000022B37DDDDF804B0BBF1000F0DD131467C
:10AB00005B460522204600F09CF901460646504669
:10AB100000F077FB00283FF7BEAD099B009D6FEA70
:10AB200003094FF000083146204600F073F9002F6A
:10AB30003FF4B4AEB8F1000F05D0B84503D041469C
:10AB4000204600F067F93946204600F063F9A5E693
:10AB500000263746E1E70C9EDDF81C9037469AE563
:10AB600000002440089BDDF804B0002B00F0F580C5
:10AB7000002D05DD39462A46204600F0E3FA074657
:10AB8000069B002B55D07968204600F00FF93A69F2
:10AB900002320546920007F10C010C30FEF76EFE02
:10ABA00001222946204600F0CDFA009B0133019393
:10ABB000009B5B440793029B03F00103B846069396
:10ABC0000746019B3146504603F1FF3BFFF772FAFF
:10ABD00003463033029041465046089300F011FB83
:10ABE0003A4604903146204600F027FBC268089B95
:10ABF000054602BB0146504600F003FB089B024697
:10AC000029462046CDE9083200F004F9059B099A4F
:10AC1000019D43EA0201069B0B43089B0DD1392B92
:10AC200027D0049A002A01DD029B31338BF80030D3
:10AC300079E73846B9E70122E2E70499002904DB05
:10AC4000059801430698014320D1002AEEDD5146C4
:10AC500001222046019300F075FA3146824600F049
:10AC6000D0FA0028019B02DCE0D1DA07DED5392BCF
:10AC7000DAD139238BF800302B461D46013B15F8FD
:10AC8000012C392A50D001321A704CE7002A03DD1A
:10AC9000392BEED00133C9E7019A079902F8013C3C
:10ACA0008A422AD0514600230A22204600F0C9F8E1
:10ACB000B84582464FF000034FF00A024146204655
:10ACC00007D100F0BEF880460746019B013301938F
:10ACD00077E700F0B6F83946804600230A2220467E
:10ACE00000F0AFF80746F0E7BBF1000F009ACCBFC9
:10ACF0005D46012515444FF00008514601222046CB
:10AD0000019300F01FFA3146824600F07AFA0028DB
:10AD1000B2DC02D1019BDB07AED42B461D4613F8F3
:10AD2000012D302AFAD0FEE6009A9A42A5D13123AD
:10AD300009F101091370F6E6124BFFF7B5BA219B32
:10AD4000002B7FF48BAA104BFFF7AEBABBF1000FBC
:10AD500003DC059B022B3FF7CFAE009D31465046EA
:10AD6000FFF7A8F900F1300305F8013B009AAA1A91
:10AD70009345B9DD514600230A22204600F061F8D0
:10AD80008246EBE744BE020046BE02000048704720
:10AD900058610020014800F025BB00BF106C002066
:10ADA000014800F020BB00BF106C002070B5466A5F
:10ADB00004460D463EB91020FDF754FFC0E9016678
:10ADC00060620660C660666AF36883B1636ADB68C6
:10ADD00053F82500B8B9012101FA05F6721D920059
:10ADE000204600F0F0FA60B1C0E901560EE02122E1
:10ADF0000421204600F0E7FA636AF060DB68002B6C
:10AE0000E4D1002070BD026843F825200023C0E98A
:10AE10000333F7E770B5466A05460C463EB9102085
:10AE2000FDF720FFC0E9016668620660C6603CB1BC
:10AE30006B6A6268DB6853F82210216043F8224095
:10AE400070BD2DE9F0410E69074698460C4601F1A8
:10AE5000140000230568A9B202FB01814FEA114CDE
:10AE60002D0C02FB05C589B2013301EB05419E4261
:10AE700040F8041B4FEA1548ECDCB8F1000F1BD07A
:10AE8000A368B34212DC616838460131FFF78EFFD8
:10AE90002269023204F10C01054692000C30FEF7E3
:10AEA000EDFC21463846FFF7B5FF2C4604EB860340
:10AEB0000136C3F8148026612046BDE8F081030CFA
:10AEC0001B04D3B90004102310F07F4F04BF00020D
:10AED000083310F0704F04BF0001043310F0404FEE
:10AEE00004BF80000233002805DB10F0804F03F11F
:10AEF000010308BF2023184670470023E4E70368D6
:10AF000013F0070201460BD0DA0724D4980749BF93
:10AF10005B089B0801200B605CBF0B600220704740
:10AF200098B2B0B91B0C102013F0FF0F04BF1B0A1E
:10AF300008301A0704BF1B0904309A0704BF9B0896
:10AF40000230DA0703D45B0800F1010005D00B6082
:10AF500070471046E8E7002070472020704710B582
:10AF60000C460121FFF722FF01224461026110BD5E
:10AF70002DE9F04F15460A692B699A42B8BF0B4676
:10AF80000C46BCBF2C461D462769D5F81090A36817
:10AF9000616807EB0906B342B8BF013185B0FFF71E
:10AFA00005FF00F1140101EB86080B460022434522
:10AFB0001DD304F1140305F1140203EB870702EB20
:10AFC000890302933B1B153B23F00303043304F175
:10AFD0001505AF4238BF04230193029B03929342AD
:10AFE00008D8002E5ADC066105B0BDE8F08F43F8A2
:10AFF000042BDCE7B2F800A0BAF1000F24D004F172
:10B00000140E89464FF0000C5EF8045BD9F800B0CE
:10B01000ABB21FFA8BFB0AFB03B34FEA154BD9F80F
:10B02000005063444FEA154C0AFB0BC505EB134572
:10B030009BB243EA0543774549F8043B4FEA154C78
:10B04000E2D8019B41F803C0039BB3F8029004329D
:10B05000B9F1000F20D00B6804F1140C8E464FF0AC
:10B06000000ABCF80050BEF802B009FB05B5AA44BE
:10B070009BB243EA0A434EF8043B5CF8043BBEF83B
:10B0800000501B0C09FB035303EB1A4367454FEABF
:10B09000134AE6D8019D4B5104319EE758F8043D10
:10B0A000002BA0D1013E9CE72DE9F843154612F094
:10B0B000030206460F4607D0214C013A002354F8FC
:10B0C0002220FFF7BEFE0746AD1035D0746A3CB9AA
:10B0D0001020FDF7C7FDC0E9014470620460C46040
:10B0E000D6F82480D8F808404CB940F27121304697
:10B0F000FFF735FF0023C8F80800044603604FF04F
:10B100000009EB070AD5394622463046FFF730FFE3
:10B11000394680463046FFF77DFE47466D100BD01E
:10B12000206838B9224621463046FFF721FF2060CB
:10B13000C0F800900446E4E73846BDE8F88300BF55
:10B1400048BF02002DE9F0470C464968236903EB2C
:10B150006218A368074691464FEA621A08F1010691
:10B16000B3423FDB3846FFF721FE0023054600F1DE
:10B17000140100F110021846534536DB20692AEA13
:10B18000EA7A04F1140319F01F0901EB8A0103EBB9
:10B19000800C2ED0C9F1200E8A460022186800FAD1
:10B1A00009F002434AF8042B53F8042B9C4522FA79
:10B1B0000EF2F3D8ACEB0403153B23F00303043386
:10B1C00004F11500604588BF0423CA500AB108F194
:10B1D0000206013E38462E612146FFF71BFE284637
:10B1E000BDE8F08701315B00BAE742F8040F013394
:10B1F000C2E7043953F8042B41F8042F9C45F9D8D1
:10B20000E7E730B502690C69121B0ED100F1140397
:10B21000143103EB840001EB840150F8045D51F814
:10B22000044DA54203D005D30122104630BD834210
:10B23000F3D3FAE74FF0FF32F7E72DE9F84F0C466A
:10B240000646114620461746FFF7DBFF051E08D1CC
:10B2500029463046FFF7AAFD0123C0E90435BDE8C1
:10B26000F88FA4BF3B46274630467968A6BF1C46E8
:10B2700000250125FFF79AFD3E69C560256907F1A4
:10B28000140104F1140900F1140E07F1100201EB8E
:10B29000860C09EB8505F246002759F8043B52F865
:10B2A00004BF1FFA83F817FA8BF71B0CA7EB0808EB
:10B2B000C3EB1B4303EB28431FFA88F81F144D45CB
:10B2C00048EA03434AF8043BE7D82B1B153B23F01D
:10B2D000030304331534A54238BF042319447344CF
:10B2E0009E460D4665450ED30CF10302521A22F01C
:10B2F000030203398C4538BF00221A4452F8043D3A
:10B300007BB10661ABE755F8048B17FA88F4221479
:10B3100002EB1842A4B244EA02444EF8044B17145C
:10B32000E0E7013EEAE72DE9F7438946012157ECC2
:10B33000106B9046FFF73AFDC7F30A550446C7F372
:10B34000130335BB002E019328D068460096FFF703
:10B35000D6FD009900B3019AC0F1200302FA03F36D
:10B360000B43C24063610192019BA361002B14BF98
:10B37000022201222261D5B1A5F233450544C9F864
:10B380000050C0F13500C8F80000204603B0BDE809
:10B39000F08343F48013D5E76161E5E701A8FFF787
:10B3A000AEFD019B6361012222612030E3E704EBE3
:10B3B0008203A0F23240C9F800001869FFF77FFD50
:10B3C000C0EB4210DFE713B54A4311460192FEF786
:10B3D000BBFA044618B1019A0021FEF75DFA204637
:10B3E00002B010BD7047704782B001B901A942B1E7
:10B3F0004BB113780B601278101E18BF012002B0F9
:10B4000070471046FBE76FF00100F8E749B1FF2AEB
:10B4100085BF8A2303600A704FF0FF3098BF012078
:10B42000704708467047000081F0004102E000BF0D
:10B4300083F0004330B54FEA41044FEA430594EAF4
:10B44000050F08BF90EA020F1FBF54EA000C55EA2F
:10B45000020C7FEA645C7FEA655C00F0E2804FEA00
:10B460005454D4EB5555B8BF6D420CDD2C4480EAE2
:10B47000020281EA030382EA000083EA010180EA12
:10B48000020281EA0303362D88BF30BD11F0004F60
:10B490004FEA01314FF4801C4CEA113102D0404296
:10B4A00061EB410113F0004F4FEA03334CEA1333D1
:10B4B00002D0524263EB430394EA050F00F0A780E9
:10B4C000A4F10104D5F1200E0DDB02FA0EFC22FAE4
:10B4D00005F2801841F1000103FA0EF2801843FAD8
:10B4E00005F359410EE0A5F120050EF1200E012AC9
:10B4F00003FA0EFC28BF4CF0020C43FA05F3C01807
:10B5000051EBE37101F0004507D54FF0000EDCF17F
:10B51000000C7EEB00006EEB0101B1F5801F1BD328
:10B52000B1F5001F0CD349085FEA30004FEA3C0C2C
:10B5300004F101044FEA445212F5800F80F09A8022
:10B54000BCF1004F08BF5FEA500C50F1000041EB26
:10B55000045141EA050130BD5FEA4C0C404141EB2A
:10B560000101013C28BFB1F5801FE9D291F0000F25
:10B5700004BF01460020B1FA81F308BF2033A3F1D4
:10B580000B03B3F120020CDA0C3208DD02F1140CCB
:10B59000C2F10C0201FA0CF021FA02F10CE002F106
:10B5A0001402D8BFC2F1200C01FA02F120FA0CFCFF
:10B5B000DCBF41EA0C019040E41AA2BF01EB045148
:10B5C000294330BD6FEA04041F3C1CDA0C340EDC46
:10B5D00004F11404C4F1200220FA04F001FA02F389
:10B5E00040EA030021FA04F345EA030130BDC4F147
:10B5F0000C04C4F1200220FA02F001FA04F340EA3C
:10B600000300294630BD21FA04F0294630BD94F0EC
:10B61000000F83F4801306BF81F480110134013DD3
:10B620004EE77FEA645C18BF7FEA655C29D094EA44
:10B63000050F08BF90EA020F05D054EA000C04BFC2
:10B640001946104630BD91EA030F1EBF00210020AD
:10B6500030BD5FEA545C05D14000494128BF41F04C
:10B66000004130BD14F580043CBF01F5801130BDB0
:10B6700001F0004545F0FE4141F470014FF000003B
:10B6800030BD7FEA645C1ABF194610467FEA655CEC
:10B690001CBF0B46024650EA013406BF52EA03358E
:10B6A00091EA030F41F4002130BD00BF90F0000F7C
:10B6B00004BF0021704730B54FF4806404F13204B8
:10B6C0004FF000054FF0000150E700BF90F0000F71
:10B6D00004BF0021704730B54FF4806404F1320498
:10B6E00010F0004548BF40424FF000013EE700BF68
:10B6F00042004FEAE2014FEA31014FEA02701FBFF8
:10B7000012F07F4393F07F4F81F06051704732F029
:10B710007F4208BF704793F07F4F04BF41F4002180
:10B72000704730B54FF4607401F0004521F00041DE
:10B730001CE700BF50EA010208BF704730B54FF068
:10B7400000050AE050EA010208BF704730B511F069
:10B75000004502D5404261EB41014FF4806404F1A1
:10B7600032045FEA915C3FF4D8AE4FF003025FEA27
:10B77000DC0C18BF03325FEADC0C18BF033202EBAB
:10B78000DC02C2F1200300FA03FC20FA02F001FA05
:10B7900003FE40EA0E0021FA02F11444BDE600BFA8
:10B7A00070B54FF0FF0C4CF4E06C1CEA11541DBF57
:10B7B0001CEA135594EA0C0F95EA0C0F00F0DEF822
:10B7C0002C4481EA030621EA4C5123EA4C5350EA07
:10B7D000013518BF52EA033541F4801143F4801358
:10B7E00038D0A0FB02CE4FF00005E1FB02E506F0E9
:10B7F0000042E0FB03E54FF00006E1FB03569CF03E
:10B80000000F18BF4EF0010EA4F1FF04B6F5007F43
:10B8100064F5407404D25FEA4E0E6D4146EB0606B5
:10B8200042EAC62141EA55514FEAC52040EA5E503E
:10B830004FEACE2EB4F1FD0C88BFBCF5E06F1ED8E8
:10B84000BEF1004F08BF5FEA500E50F1000041EB1F
:10B85000045170BD06F0004646EA010140EA0200CC
:10B8600081EA0301B4EB5C04C2BFD4EB0C0541EAEE
:10B87000045170BD41F480114FF0000E013C00F303
:10B88000AB8014F1360FDEBF002001F0004170BD27
:10B89000C4F10004203C35DA0C341BDC04F1140440
:10B8A000C4F1200500FA05F320FA04F001FA05F2CC
:10B8B00040EA020001F0004221F0004110EBD37099
:10B8C00021FA04F642EB06015EEA430E08BF20EAC5
:10B8D000D37070BDC4F10C04C4F1200500FA04F368
:10B8E00020FA05F001FA04F240EA020001F00041FA
:10B8F00010EBD37041F100015EEA430E08BF20EA6D
:10B90000D37070BDC4F1200500FA05F24EEA020EB4
:10B9100020FA04F301FA05F243EA020321FA04F0E3
:10B9200001F0004121FA04F220EA020000EBD3709A
:10B930005EEA430E08BF20EAD37070BD94F0000F9A
:10B940000FD101F00046400041EB010111F4801FCE
:10B9500008BF013CF7D041EA060195F0000F18BF7F
:10B96000704703F00046520043EB030313F4801FBB
:10B9700008BF013DF7D043EA0603704794EA0C0F75
:10B980000CEA135518BF95EA0C0F0CD050EA41068B
:10B9900018BF52EA4306D1D181EA030101F0004108
:10B9A0004FF0000070BD50EA410606BF1046194630
:10B9B00052EA430619D094EA0C0F02D150EA01363C
:10B9C00013D195EA0C0F05D152EA03361CBF10467D
:10B9D00019460AD181EA030101F0004141F0FE411C
:10B9E00041F470014FF0000070BD41F0FE4141F4A0
:10B9F000780170BD70B54FF0FF0C4CF4E06C1CEAA0
:10BA000011541DBF1CEA135594EA0C0F95EA0C0F54
:10BA100000F0A7F8A4EB050481EA030E52EA03350F
:10BA20004FEA013100F088804FEA03334FF0805530
:10BA300045EA131343EA12634FEA022245EA11155D
:10BA400045EA10654FEA00260EF000419D4208BF0E
:10BA5000964244F1FD0404F5407402D25B084FEABB
:10BA60003202B61A65EB03055B084FEA32024FF467
:10BA700080104FF4002CB6EB020E75EB030E22BFC4
:10BA8000B61A754640EA0C005B084FEA3202B6EB84
:10BA9000020E75EB030E22BFB61A754640EA5C0033
:10BAA0005B084FEA3202B6EB020E75EB030E22BFC3
:10BAB000B61A754640EA9C005B084FEA3202B6EBC4
:10BAC000020E75EB030E22BFB61A754640EADC0083
:10BAD00055EA060E18D04FEA051545EA16754FEAE5
:10BAE00006164FEAC30343EA52734FEAC2025FEA03
:10BAF0001C1CC0D111F4801F0BD141EA00014FF092
:10BB000000004FF0004CB6E711F4801F04BF014362
:10BB10000020B4F1FD0C88BFBCF5E06F3FF6AFAE7E
:10BB2000B5EB030C04BFB6EB020C5FEA500C50F10E
:10BB3000000041EB045170BD0EF0004E4EEA113191
:10BB400014EB5C04C2BFD4EB0C0541EA045170BD98
:10BB500041F480114FF0000E013C90E645EA060EDC
:10BB60008DE60CEA135594EA0C0F08BF95EA0C0F0A
:10BB70003FF43BAF94EA0C0F0AD150EA01347FF452
:10BB800034AF95EA0C0F7FF425AF104619462CE729
:10BB900095EA0C0F06D152EA03353FF4FDAE10468C
:10BBA000194622E750EA410618BF52EA43067FF4DD
:10BBB000C5AE50EA41047FF40DAF52EA43057FF46D
:10BBC000EBAE12E74FF0FF3C06E000BF4FF0010C78
:10BBD00002E000BF4FF0010C4DF804CD4FEA410CDC
:10BBE0007FEA6C5C4FEA430C18BF7FEA6C5C1BD0A9
:10BBF00001B050EA410C0CBF52EA430C91EA030F2A
:10BC000002BF90EA020F0020704710F1000F91EA86
:10BC1000030F58BF994208BF90422CBFD8176FEA54
:10BC2000E37040F0010070474FEA410C7FEA6C5C22
:10BC300002D150EA013C07D14FEA430C7FEA6C5C29
:10BC4000D6D152EA033CD3D05DF8040B704700BF55
:10BC50008446104662468C461946634600E000BFA3
:10BC600001B5FFF7B7FF002848BF10F1000F01BD75
:10BC70004DF808EDFFF7F4FF0CBF012000205DF840
:10BC800008FB00BF4DF808EDFFF7EAFF34BF0120C5
:10BC900000205DF808FB00BF4DF808EDFFF7E0FF5E
:10BCA00094BF012000205DF808FB00BF4DF808EDAF
:10BCB000FFF7CEFF94BF012000205DF808FB00BF16
:10BCC0004DF808EDFFF7C4FF34BF012000205DF8F8
:10BCD00008FB00BF4FEA410C7FEA6C5C02D150EADE
:10BCE000013C0AD14FEA430C7FEA6C5C02D152EA74
:10BCF000033C02D14FF0000070474FF00100704745
:10BD00004FEA410212F5001215D211D56FF4787383
:10BD1000B3EB625212D94FEAC12343F0004343EA26
:10BD2000505311F0004F23FA02F018BF4042704701
:10BD30004FF00000704750EA013005D111F000408B
:10BD400008BF6FF0004070474FF00000704700BF21
:10BD5000044A05491368002B08BF0B4618441060BD
:10BD600018467047E86B0020186C0020FEE700BF03
:10BD7000F8B500BFF8BC08BC9E467047F8B500BFD8
:10BD8000F8BC08BC9E46704702000000030000009B
:10BD90001C0000001D000000040000000500000061
:10BDA0002B0000002C0000002D0000002E000000E1
:10BDB0002F0000001A000000060000001E00000016
:10BDC0000E000000280000001B000000070000001B
:10BDD0000B0000002A0000002000000010000000FE
:10BDE0000D00000011000000150000001900000007
:10BDF00014000000180000001600000017000000EA
:10BE0000090000000A0000001F000000546D72517C
:10BE100000000000546D7220537663006C6F6F70E9
:10BE20000000000043616C6C6261636B0000000005
:10BE300008600020494E4600696E66004E414E0083
:10BE40006E616E003000496E66696E697479004EED
:10BE5000614E0000000000000080E03779C34143DC
:10BE6000176E05B5B5B89346F5F93FE9034F384D60
:10BE7000321D30F94877825A3CBF737FDD4F15750C
:10BE8000000000000000F03F00000000000024401F
:10BE900000000000000059400000000000408F40FA
:10BEA000000000000088C34000000000006AF84065
:10BEB0000000000080842E4100000000D012634189
:10BEC0000000000084D797410000000065CDCD41FF
:10BED000000000205FA00242000000E876483742E0
:10BEE000000000A2941A6D42000040E59C30A2427E
:10BEF0000000901EC4BCD64200003426F56B0C43F3
:10BF00000080E03779C3414300A0D8855734764399
:10BF100000C84E676DC1AB43003D9160E458E143FA
:10BF2000408CB5781DAF154450EFE2D6E41A4B446F
:10BF300092D54D06CFF08044F64AE1C7022DB544B4
:10BF4000B49DD9794378EA44050000001900000047
:10BF50007D0000004300504F534958002E00002040
:10BF600020202020202020202828282828202020A9
:10BF70002020202020202020202020202020208859
:10BF800010101010101010101010101010101004BD
:10BF9000040404040404040404101010101010100D
:10BFA0004141414141410101010101010101010101
:10BFB0000101010101010101010110101010101017
:10BFC00042424242424202020202020202020202D1
:10BFD00002020202020202020202101010102000ED
:10BFE0000000000000000000000000000000000051
:10BFF0000000000000000000000000000000000041
:10C000000000000000000000000000000000000030
:10C010000000000000000000000000000000000020
:10C020000000000000000000000000000000000010
:10C030000000000000000000000000000000000000
:10C0400000000000000000000000000000000000F0
:10C0500000000000000000000000000000000000E0
:04C0600000000000DC
:08C06400ECB1FF7F01000000B8
:10C06C000090D003086000200000000000000000D9
:10C07C0000000000000000000000000000000000B4
:10C08C0000000000000000000000000000000000A4
:10C09C000000000000000000000000000000000094
:10C0AC000000000000000000000000000000000084
:10C0BC000000000000000000000000000000000074
:10C0CC000000000000000000430000000000000021
:10C0DC000000000000000000000000000000000054
:10C0EC000000000000000000430000000000000001
:10C0FC000000000000000000000000000000000034
:10C10C0000000000000000004300000000000000E0
:10C11C000000000000000000000000000000000013
:10C12C0000000000000000004300000000000000C0
:10C13C0000000000000000000000000000000000F3
:10C14C0000000000000000004300000000000000A0
:10C15C0000000000000000000000000000000000D3
:10C16C000000000000000000430000000000000080
:10C17C0000000000000000000000000000000000B3
:10C18C000000000000000000430000000000000060
:10C19C000000000000000000000000000000000093
:10C1AC0000000000000000000DB40200E9B3020022
:10C1BC00000000005EBF02005CBF02005DBF020019
:10C1CC005DBF02005DBF02005DBF02005DBF0200EB
:10C1DC005DBF02005DBF02005DBF02005DBF0200DB
:10C1EC00FFFFFFFFFFFFFFFFFFFFFFFFFFFF000051
:10C1FC0001004153434949000000000000000000C9
:10C20C000000000000000000000000000000000022
:10C21C0000004153434949000000000000000000A9
:10C22C000000000000000000000000000000000002
:10C23C00000000000172020035720200117202004F
:040000032000865DF6
:00000001FF
