:020000022000DC
:10600000000001202177020061770200637702001F
:1060100065770200677702006977020000000000E0
:106020000000000000000000000000009D7602005B
:106030006D77020000000000BD760200717702005B
:1060400073770200737702005D84020073770200A9
:106050007377020073770200737702007377020090
:106060007377020073770200737702007377020080
:106070007377020073770200737702007377020070
:1060800073770200F57302007377020073770200E2
:106090007377020073770200737702007377020050
:1060A0007377020073770200737702007377020040
:1060B0007377020073770200000000000000000008
:1060C0007377020073770200737702007377020020
:1060D00073770200737702007377020000000000FC
:1060E00000000000000000000000000000000000B0
:1060F00000000000000000000000000000000000A0
:10610000000000000000000000000000000000008F
:10611000000000000000000000000000000000007F
:10612000000000000000000000000000000000006F
:10613000000000000000000000000000000000005F
:10614000000000000000000000000000000000004F
:10615000000000000000000000000000000000003F
:10616000000000000000000000000000000000002F
:10617000000000000000000000000000000000001F
:10618000000000000000000000000000000000000F
:1061900000000000000000000000000000000000FF
:1061A00000000000000000000000000000000000EF
:1061B00000000000000000000000000000000000DF
:1061C00000000000000000000000000000000000CF
:1061D00000000000000000000000000000000000BF
:1061E00000000000000000000000000000000000AF
:1061F000000000000000000000000000000000009F
:10620000F1EE103A43F08073E1EE103A704700BFB0
:1062100010B5054C237833B9044B13B10448AFF3E0
:1062200000800123237010BDE8370020000000002B
:10623000E8BD020008B5034B1BB103490348AFF3A7
:10624000008008BD00000000EC370020E8BD02001F
:10625000154B002B08BF134B9D46A3F5803A002138
:106260008B460F461348144A121A03F0BFF90F4B1E
:10627000002B00D098470E4B002B00D098470020F1
:10628000002104000D000D48002802D00C48AFF397
:10629000008003F069F92000290001F095FA03F06D
:1062A0004FF900BF000008000000012000000000BE
:1062B00000000000E8370020C84200200000000075
:1062C00000000000024B0121186801F03DBD00BF35
:1062D0000036002010B5094C0121206801F0CCFDEA
:1062E0004FF47A7000F01EF82068002101F0C4FD20
:1062F000BDE810404FF47A7000F014B8003600206A
:1063000008B50121112001F01FFD112001F0CAFD87
:106310001320012101F018FDBDE80840132001F011
:10632000C1BD00BF08B5014600238002890D4FF4AE
:106330007A7202F089FFBDE8084000F021BB00BF7F
:106340002DE9F041044601F03DF8344A344D13681C
:10635000013313602B68002B30D0324E336833B3D7
:10636000E36A3148314907680A689F4238BF0360D1
:106370002F48013203EB83030A6000EB8300E263E2
:10638000211D02F0C7F801F027F833686BB12A68C5
:10639000E36AD26A9A4208D2264B4FF080525A6082
:1063A00040BFBFF34F8FBFF36F8FBDE8F0812A6806
:1063B000E36AD26A9A4298BF2C60D2E72C601368D5
:1063C000012B02D0E36A174ECBE71948DFF8908023
:1063D000194F144E02F08EF8184802F08BF8184846
:1063E00002F088F8174802F085F8174802F082F8A2
:1063F000404602F07FF8384602F07CF8134802F07D
:1064000079F8134802F076F8124802F073F8124B4C
:10641000124AC2F800801F60E36AA2E774380020C5
:1064200004380020D4380020883800208438002028
:106430001038002000ED00E0A038002024380020B3
:10644000383800204C38002060380020C038002048
:10645000EC380020D83800200C3800200838002004
:106460008C3800202DE9F843DDE909C4002C66D002
:10647000BCF1000F60D00D469600984602233246CC
:1064800084F85130A5210746C4F830C0604603F0B7
:10649000ADF82A7884F83420236B2978321F1A4407
:1064A00022F0070601B36B7884F835306B78DBB1E6
:1064B000AB7884F83630AB78B3B1EB7884F837300A
:1064C000EB788BB12B7984F838302B7963B16B7909
:1064D00084F839306B793BB1AB7984F83A30AB79D9
:1064E00013B1EB7984F83B30089D042D28BF0425B7
:1064F0004FF00009E5626564201D84F83B90C4F804
:10650000489002F003F8C5F1050504F1180001F008
:10651000FDFFC4F84C9042463946A561246184F8D9
:1065200050906462304600F011FF20602046FFF773
:1065300007FF2046BDE8F8836046BDE8F8832046A3
:10654000BDE8F8832DE9F0479600804630460D46B9
:10655000994602F04BF8002862D00746542002F01A
:1065600045F8044600285FD000230763324684F8CC
:1065700051303846A52103F039F82B7884F83430AF
:106580002B78D4F830A003B36B7884F835306B786F
:10659000DBB1AB7884F83630AB78B3B1EB7884F804
:1065A0003730EB788BB12B7984F838302B7963B1A5
:1065B0006B7984F839306B793BB1AB7984F83A3038
:1065C000AB7913B1EB7984F83B30089D042D28BFDB
:1065D00004250027E5626564201D84F83B70A764EC
:1065E000043E01F093FFC5F1050504F1180056447F
:1065F00001F08CFFE764A56126F0070084F8507075
:10660000246164624A46414600F0A0FE099B206076
:1066100003B11C602046FFF793FE0120BDE8F08720
:106620004FF0FF30BDE8F087384601F0F3FF4FF040
:10663000FF30F3E770B584B0002503AA02A901A8D2
:10664000CDE9015501F0C2FA019C002C46D0029818
:10665000002843D0039E20630223B6003246A521C2
:1066600084F8513002F0C2FF206B1F4B6363043E7D
:106670000644C4E91155201D84F8385084F83B5075
:10668000E56201F043FF04F1180001F03FFF26F03E
:10669000070605231549A3612A46E56430462461AF
:1066A000646284F8505000F051FE20602046FFF7ED
:1066B00047FE0F4B1C6000F0EFFD012811D1402375
:1066C00083F311880B490C4A0C4B4FF0FF340C60DC
:1066D00010601D6000F050FE04B070BD044B00223D
:1066E0001A6004B070BD00BF49444C45056A020001
:1066F000B4380020B8380020D438002000390020F9
:10670000024A136801331360704700BF80380020CD
:10671000014B1868704700BF00390020024A136817
:1067200018441060704700BF003900202DE9F04F79
:10673000404B1B6883B0002B46D13F4B1E6801368F
:106740001E60002E4ED0DFF808B1DBF80030B342F7
:106750005FD83A4F3B681D68002D65D0DFF8F480A4
:10676000DFF8F4A0DFF8F490002522E0019101F0B9
:10677000F9FEA36A019904F1180013B101F0F2FEC9
:106780000199E36AD8F8002003EB830093420AEBF7
:10679000800088BFC8F8003001F0BCFED9F80020A6
:1067A0003B68E16AD26A1B68914228BF0125002B31
:1067B0003AD03B68DB68DC686368211D9E4208466E
:1067C000D4D2CBF8003004E01D4A136801331360C3
:1067D00000251C4B1B68002B0CBF2846012003B072
:1067E000BDE8F08F154B184A1868184914681C60EA
:1067F00010600A6801320A601A6812685AB9DFF834
:1068000050B04FF0FF33CBF80030DBF80030B3422C
:106810009FD90025DDE71B68DFF834B0DB68DB6853
:106820005B68CBF8003090E74FF0FF33CBF80030D7
:10683000CFE700BF80380020003900200838002052
:106840007C380020043900200C380020BC3800209F
:10685000B838002088380020103800200438002084
:106860002DE9F04F83B000F0ADFD3A4B1A68013AC4
:106870001A601B68002B55D1374B1B68002B51D079
:10688000364D2B68002B62D0354EDFF8EC80354F4B
:10689000DFF8E8904FF0010AEB68DC6804F1040BC4
:1068A00004F1180001F05EFE584601F05BFEE36A59
:1068B000326803EB83009342594608EB800088BF9F
:1068C000336001F027FE3B68E26ADB6A9A4231D30B
:1068D000C9F800A02B68002BDED1234B1A68126880
:1068E000002A2FD01A68214BD268D26852681A60E9
:1068F0001F4E346844B10125FFF718FF08B1C9F8ED
:106900000050013CF8D13460D9F8003053B1194B34
:106910004FF080525A6040BFBFF34F8FBFF36F8F6D
:10692000012000E00020019000F056FD019803B026
:10693000BDE8F08F2B68002BAED10B4B1A681268A4
:10694000002ACFD1094B4FF0FF321A60D0E7DFF8B1
:106950002C90CDE78038002074380020C03800200B
:10696000883800200438002008380020B83800207B
:106970007C38002000ED00E01038002004390020B1
:1069800070B548B9184B4FF080525A6040BFBFF302
:106990004F8FBFF36F8F70BD144A15491368154DA3
:1069A000013313600E6804462868043001F0DAFDF4
:1069B0002B68A4195C600FD20F4B1868296804314A
:1069C00001F0B8FD0D4B1A68944238BF1C60FFF708
:1069D00047FF0028D6D070BD094B186829680431DC
:1069E00001F0A8FDF3E700BF00ED00E080380020D3
:1069F000003900200438002008380020B838002072
:106A00000C3800202DE9F84F3A4CDFF804913A4D4C
:106A10003A4EDFF800813A4FDFF8FCB02368EBB163
:106A200000F0D0FCD9F80C30D3F80CA00AF1040027
:106A300001F098FD2B68013B2B602368013B23602C
:106A400000F0CAFC9AF85130002B34D0012BE5D16C
:106A5000504601F0DFFD2368002BE1D13368012BA4
:106A600008D94FF08053CBF8043040BFBFF34F8FAD
:106A7000BFF36F8F00F052FED8F800301BBB3B68AD
:106A8000DB6A002BCAD13368012BC7D81D4B1E4AC5
:106A90001B6812689B1A012BC0D91C4A136801336A
:106AA0001360D8F80030A3B13B68DB6A03B93368E0
:106AB000FFF7D6FEB2E7DAF8300001F0ABFD504642
:106AC00001F0A8FDAAE73B68DB6A002BA6D133687A
:106AD000A4E73B68DB6A002BEAD13368012BE7D8D7
:106AE000084B1868084B1B68C01A0128E0D900F051
:106AF000E3FCDDE7783800207438002010380020EF
:106B000004380020B83800200039002080380020E8
:106B1000EC3800208838002000ED00E0294B1B688D
:106B20001BB1294B01221A607047274A70B5274CC8
:106B300013602268236812681B6B9A423CD9244D6B
:106B4000244B2A6802EB820080009100185808BB91
:106B5000501E00EB8006B60081009E5956BB901E69
:106B600000EB8006B60081009E591EBBD01E00EBD4
:106B70008006B60081009E59E6B9101F00EB800622
:106B8000B60081009E59AEB9053A02EB8200800042
:106B900091001858114403EB81000346416849688D
:106BA00041600833994204BF49684160CB68236063
:106BB0002A6070BD0246EDE720682168343101F09B
:106BC00001F8BCE780380020043900200438002098
:106BD000883800201038002070B5174D2B680C46FF
:106BE00003F1180101F0A6FC144B1E68286804305C
:106BF00001F0B8FC631C17D02B68A4195C6007D3A4
:106C00000F4B18682968BDE87040043101F092BC50
:106C10000C4B18682968043101F08CFC0A4B1A6887
:106C2000944238BF1C6070BD29680848BDE87040B8
:106C3000043101F06FBC00BF04380020003900208F
:106C40000C38002008380020B8380020D838002040
:106C500070B5194D2B6816460C4603F1180101F06A
:106C600059FC164B5EB11B682868043001F07AFCB1
:106C700029681348BDE87040043101F04BBC1E6820
:106C80002868043001F06EFC2B68A4195C6007D3FF
:106C90000C4B18682968BDE87040043101F04ABC0B
:106CA000094B18682968043101F044FC074B1A6845
:106CB000944238BF1C6070BD0438002000390020A9
:106CC000D83800200C38002008380020B8380020C0
:106CD00030B5C368DC6804F1180583B0284601F0BC
:106CE00041FC1C4B1B683BBB211D0846019101F078
:106CF00039FC194AE36A106801998342174888BF32
:106D0000136003EB830300EB830001F003FC144BDF
:106D1000E26A1B68DB6A9A4282BF124B012018604C
:106D2000114B1A68126898BF002052B90F4B4FF0F0
:106D3000FF321A6003B030BD0D48294601F0EAFB6E
:106D4000E5E71A68094BD268D26852681A6003B046
:106D500030BD00BF80380020883800201038002067
:106D6000043800200439002008380020B8380020FA
:106D7000C0380020034A044B12681B68C0E9002396
:106D8000704700BFBC38002000390020F0B50D4628
:106D900083B0044600F016FB2B68144A591C106897
:106DA0001DD0DFF84CC0D4E90061DCF80070BE42B1
:106DB00008D0814206D80120019000F00DFB019817
:106DC00003B0F0BD471ABB420BD91B1A0B44DCF8C9
:106DD000001012682B600020C4E90012ECE70020CC
:106DE000EAE700232B600120E6E700BF003900201E
:106DF000BC380020014B01221A6070470439002082
:106E0000094B186818B9094B1B6813B1704700206B
:106E10007047074A074B10681B68013B984214BF34
:106E200001200220704700BFC03800200439002034
:106E3000D838002074380020054B1B6833B1054B4F
:106E40001B68002B0CBF02200020704701207047F8
:106E5000D43800208038002070B5044682B0C8B114
:106E60001D4DC36A2A68D26A934215D28269002AEC
:106E700004DB2A68D26AC2F105028261174E626998
:106E800003EB830306EB83039A420ED02B68DB6A85
:106E9000E362012002B070BD2B68406CDC6AA04246
:106EA0002CBF0020012002B070BD211D08460191B9
:106EB00001F058FB2A680A4BD06A1A680199E0620F
:106EC000904200D9186000EB800006EB800001F0D2
:106ED00021FB0120DEE700BF04380020103800202D
:106EE0008838002068B130B5836CC16A426C013BC0
:106EF000914283B00446836400D023B1002003B0E4
:106F000030BD00207047011D0846019101F02AFBA9
:106F10000A4A636C1068E3628342094888BF1360C1
:106F2000C3F1050503EB830300EB83000199A56121
:106F300001F0F0FA012003B030BD00BF8838002016
:106F40001038002070B130B5426CC36A914238BF2E
:106F500011468B4283B0044602D0826C012A02D0D3
:106F600003B030BD70478269114DC162002A03EB46
:106F700083034269A8BFC1F1050105EB8303A8BFE4
:106F800081619A42ECD1011D0846019101F0EAFAB3
:106F9000084BE06A1A680199904288BF186000EBBC
:106FA000800005EB800003B0BDE8304001F0B2BACC
:106FB0001038002088380020044B1A681AB119686C
:106FC0008A6C01328A641868704700BF0438002058
:106FD0002DE9F0431D4EDFF87C9085B04FF000089E
:106FE0000CE0DB68DC681F68251D284601F0BAFA52
:106FF000636A20469847E369012B0AD033681A6810
:10700000002AEED1124A11683160136005B0BDE864
:10701000F083A3693B449F42294610D3D9F800303E
:10702000002BEBD0CDE900870294FFF705FF00238A
:10703000D9F800001A46694601F06CFBDEE73068BB
:107040006360246101F076FAD8E700BF08390020B8
:107050000C3900208C3B00202DE9F04F894E8A4CE2
:10706000DFF82C82894DDFF82CA28BB03368D3F87F
:1070700000B0BBF1000F00F0A980DB68D3F800B0CE
:10708000FFF73EFBFFF744FB22688242814600F295
:10709000AE808345206040F2BF8000222868ABEBC1
:1070A000090102F031F8FFF7DBFB40B94FF08053E4
:1070B000CAF8043040BFBFF34F8FBFF36F8F28680B
:1070C000002202A901F006FD0028CFD0029B002B70
:1070D00073DBDDF81090D9F814301BB109F104000E
:1070E00001F040FAFFF714FB236898420746C0F00E
:1070F0008580029B2760092BE1D801A252F823F07A
:10710000297102002971020029710200BF7002007A
:1071100083710200AB710200297102002971020023
:10712000BF700200837102000398D9F81830C9F8C3
:107130001090C2182CBF01210021BA42C9F80420C6
:107140005FD8381A834228D8D9F82430484698475F
:10715000D9F81C302868012BB2D10028B0D0D9F85A
:107160001820039B00211344CDE907390691FFF74E
:1071700063FE002328681A4606A901F0CBFA2868A6
:107180009EE7039BC9F81090DA19BA42C9F8183083
:10719000C9F8042039D8002B91D0D8F8000009F1A3
:1071A000040101F0C7F928688AE799F82C30002B10
:1071B00085D1484601F02EFA81E7039BDDE9040101
:1071C0009847029B002BFFF67AAF82E7FFF798FA09
:1071D000FFF79EFA22689042814608D3D8F8002033
:1071E000C4F800901268B2FA82F2520956E7FFF72B
:1071F000EFFEC4F80090FFF733FB60E7FFF7E8FE0F
:1072000077E7B84201D900299ED0306809F104011E
:1072100001F090F9286853E7FFF722FB3268D26843
:10722000D768391D0846019101F09CF9F869019968
:10723000012803D07B6A3846984740E7BA693F6126
:107240000BEB02004845786003D9306801F072F911
:10725000F0E7A9EB0B039A420FD82B68002BE9D07B
:107260000023CDE9063B0897FFF7E6FD00232868D9
:107270001A4606A901F04EFADCE7D8F8000001F042
:1072800059F9D7E708390020383B00208C3B002013
:107290000C39002000ED00E0F0B51F4C89B000F083
:1072A00091F82568F5B100F097F82068C0B1002486
:1072B00007AA06A905A8CDE9054400F095FCDDE97B
:1072C00005310222CDE900210293079A134914489F
:1072D0002346FFF7C7F8134B1860001B18BF0120A7
:1072E00009B0F0BD104F114E384601F003F9304699
:1072F00001F000F90E4A0F4900950F4B17600E6020
:107300000E4A1021202001F093F920600028CAD0F5
:107310000B4901F0E7FEC6E78C3B002060BB020092
:1073200059700200903B0020103B0020243B0020BD
:10733000083900200C3900203C3B00201039002087
:1073400058BB0200402383F31188FEE730B46FF08E
:107350000203084C40F80C4C4FF0807540F8045C78
:1073600040F8081C40F8202C40F8243C30BC44383D
:10737000704700BF457302000F4C08B5E02384F846
:10738000223000F07BF80D4B0D4A00211960D4F833
:10739000883043F47003C4F88830536843F04043A6
:1073A0005360236943F01003236100F065F9402323
:1073B00083F31188FEE700BF00ED00E0943B00205E
:1073C00030EF00E0402383F31188024A1368013351
:1073D00013607047943B0020034A1368013B13601D
:1073E0000BB983F311887047943B002041DF70474D
:1073F00012DF704770B51D4B00221A6082B01B6807
:107400000193019BEFF31186402383F31188184900
:10741000184BD1F804451A601B680093009BFFF7D6
:1074200077F9201A20F07F4323F0010320F07F45F5
:107430009BB96C1E6DB10025FFF778F9013C631C08
:1074400045EA0005F8D125B10B4B4FF080525A6048
:1074500040BF86F3118802B070BDFFF7EDFC022833
:10746000E7D0FFF763F90546EDE700BF40110140A3
:10747000001001400011014000ED00E00B4B0C49F1
:1074800030B41F200B4DC3F8080501220224E02070
:10749000C3F804232A601A60C3F8444381F8110337
:1074A0004FF400330B6030BC704700BF0010014048
:1074B00000E100E0081001402DE9F041054684B0EC
:1074C000EFF3108272B6614CA36883B9604B6148D8
:1074D0000121A160D3F8801001402160C3F8800031
:1074E000D3F8841061604FF0FF31C3F8841002B903
:1074F00062B6594ED6F80485FFF782FC78B3574F31
:10750000574AAF4228BF2F4607EB080323F07F43BB
:1075100001214FF0000CC6F80813C6F84035C2F838
:1075200000C0136801934FF480330198C6F8043308
:10753000BFF34F8F25BBC6F8083315601268494B5F
:107540000392039A1D601B680293414B029AC6F88E
:1075500004134FF40032D6F80415C3F88021A36851
:107560005BB1EFF3108272B6394B21681960616824
:1075700059600023A36002B962B604B0BDE8F0818F
:10758000F1EE103A23F09F03E1EE103AF1EE103ADB
:107590002F4D4023C5F8843103A88DF80CC0FFF7A8
:1075A00027FF9DF80C30002B4DD12B4620BFD3F880
:1075B0000011D3F804210A43F8D0274B2848294A60
:1075C0004FF48031C3F80813002101600068039074
:1075D000039811601268029201220299C3F80423F1
:1075E000D3F804351A4AA3EB080828F07F4847452A
:1075F00028BF47464FF40033012FC2F8803120D90D
:10760000781EFFF78BF8184BDB68DA010FD5174AA5
:107610001368DB070BD5164B516803FB07F7A7F57B
:107620007427A7F51077BF0A01EB87175760FFF79C
:107630007DF8002893D00F4B4FF080525A6040BF26
:107640008DE7F4D08BE7FFF7D1FEB6E79C42002030
:1076500000E100E0FC06FFBD00100140FDFFFF005F
:107660004011014000110140F0ED00E0001000E089
:1076700040420F0000ED00E00748006880F30888F2
:1076800062B661B6BFF34F8FBFF36F8F4FF0E0006C
:1076900080F3118800DF00BF00600200064B19680C
:1076A0000868B0E8F04F80F30988BFF36F8F4FF0A0
:1076B000000080F31188704704380020EFF3098040
:1076C000BFF36F8F144B1A681EF0100F08BF20ED28
:1076D000108A20E9F04F10604DF8043D4FF0400053
:1076E00080F31188BFF34F8FBFF36F8FFFF716FA48
:1076F0004FF0000080F3118808BC19680868B0E8F2
:10770000F04F1EF0100F08BFB0EC108A80F309880C
:10771000BFF36F8F704700BF04380020704700BF71
:107720000A490B4A0B4B9B1A03DD043BC858D05047
:10773000FBDC094809494FF0AD32026004300439DE
:10774000FBD100F06FF8FEF783FD0000F4BD0200EE
:1077500000360020E837002000F800200008000074
:10776000FEE7FEE7FEE7FEE7FEE7FEE7FEE7FEE7F1
:10777000FEE7FEE708B5FEF7A5FD114BBBB1114BC7
:1077800063B1FEF7A7FD00F011FA00F057FEFEF717
:10779000A1FD00F00BFA00F051FEF2E7FEF79AFDB2
:1077A00000F004FAFEF796FD00F000FAF6E7FEF7A7
:1077B00091FD00F0FBF9FEF78DFD00F0F7F9F6E71B
:1077C000000000003D84020000B583B000F082FAA2
:1077D000FEF796FD0E4B019301230E4900934FF4E3
:1077E000806200230C48FEF7ADFE4FF4407000F0BD
:1077F0004DFAFEF71FFFBFF34F8F0849084BCA68C9
:1078000002F4E0621343CB60BFF34F8F00BFFDE78C
:10781000983B002068BB02007577020000ED00E095
:107820000400FA05914B1B6830B45D1C00F0F58034
:107830008F4A1268062B00F0E5808E4B1B78062BD2
:1078400000F0CF80894B1B685C1C00F0C380884A25
:107850001268062B00F0B380864B1B78062B00F0D5
:107860009B80824B1B68581C00F08F80804A1268F6
:10787000062B7CD07F4B1B78062B5AD07B4B1B688A
:10788000591C1ED07A4A062B11680FD07A4AD2F8BA
:10789000883043F47003C2F88830BFF34F8FBFF3D2
:1078A0006F8F764B764A1A6030BC7047CA1E032A27
:1078B00040F212810339032940F2B6806C4B1B68F9
:1078C000C2E06C496F4A097812680629C2F30312B4
:1078D000DCD1033A032A40F2FF80664A694B1278F2
:1078E0001B68062AC3F30313D0D1033B032B40F2DA
:1078F0009B80604A634B12781B68062AC3F303130C
:1079000008BF4FF0FF32C1D1033B032B40F2A280EE
:10791000574B1B68062AB9D1033B032BB6D85A4AEA
:10792000D35C002BB2D0594A136843F480631360D0
:10793000ACE7544B1B68C3F30313033B032B9DD8E5
:10794000534AD25C12B1534A03211160524AD35CAC
:10795000002B93D0514A524C5249534B0520106092
:10796000012500203F22256008601A6086E7033A5F
:10797000032A3FF67FAF4FF080430022C3F80C216B
:10798000C3F81021C3F8382574E73E4A394B126812
:107990001B78C2F303126BE73A4B1B68C3F3031364
:1079A000033B032B3FF65DAF404AD35C002B3FF413
:1079B00058AF3F4AD36823F08073D36051E7033A4E
:1079C000032A3FF649AF3B4B3B4A1B68C3F34233A4
:1079D000136041E72B4A274B12681B78C2F303124E
:1079E00037E7284B1B68C3F30313033B032B3FF616
:1079F00029AF324AD35C002B3FF424AF304B314ADD
:107A00001A601FE7033A032A3FF617AF2E4B2F4A9F
:107A10001B68C3F3042313600FE71A4A154B12685F
:107A20001B78C2F3031205E7294B104A1B68126842
:107A3000284903F04F030B60531C3FF45AAF0C4B23
:107A4000062A1B687FF422AF033B032B4FF006028C
:107A50003FF65EAF4FF08041D1F8003413F0010FD4
:107A6000034B40F093801B6854E700BF30010010C7
:107A700034010010E00F00F000ED00E004360020BB
:107A80000090D003E80F00F074BB02003C170040E8
:107A900078BB0200A005004078BB020010560040F1
:107AA00088560040185600401456004078BB02002B
:107AB000F0ED00E0440200103C05004078BB0200FD
:107AC00074C007400DF0ADBA2403001040350140EA
:107AD00058020010E40E004030498A5C002A48D069
:107AE0004FF080532E4AD3F80414C2F82015D3F86F
:107AF0000814C2F82415D3F80C14C2F82815D3F8CA
:107B00001014C2F82C15D3F81414C2F83015D3F899
:107B10001814C2F83415D3F81C14C2F84015D3F861
:107B20002014C2F84415D3F82414C2F84815D3F829
:107B30002814C2F84C15D3F82C14C2F85015D3F8F9
:107B40003014C2F85415D3F83414C2F86015D3F8C1
:107B50003814C2F86415D3F83C14C2F86815D3F889
:107B600040141048C2F86C15D3F844140368C2F8E6
:107B700070155A1C3FF4B1AE0B4A062B11687FF406
:107B800085AE033903293FF699AE4DE7054A1B68D8
:107B900012686FF00100C1F80004BBE670BB020080
:107BA00000C000403001001034010010044B4FF0C1
:107BB00080525A6040BFBFF34F8FBFF36F8F704743
:107BC00000ED00E0704700BF704700BF044B03604A
:107BD00010B46423034C0C605DF8044B13607047D1
:107BE0009C3B0020F03B0020054B036010B44FF499
:107BF0008073044C0C605DF8044B1360704700BF49
:107C0000803D0020D43D002070B51F4D84B0286811
:107C10004FF0FF3203A900F05DFF0028F7D0039C6E
:107C2000237A6668052B0CD8DFE803F02629211B90
:107C30001403D4E90523D4E90301E4690094B047AF
:107C4000039C206810B100F0BBFC039C204600F0B0
:107C5000B7FCDCE7D4E90523D4E90301B047039C72
:107C6000EFE7D4E90412E068B047039CE9E7D4E900
:107C70000301B047039CE4E7B047039CE1E7E068F9
:107C8000B047039CDDE700BFD841002070B540231A
:107C90000B4D82B004460022184604212B6000F0F0
:107CA000F7FC084D084B0193064602230093074951
:107CB0002E60A2B200230648FEF744FC02B070BD5D
:107CC000D4410020D8410020DC4100207CBB0200D0
:107CD000097C02004FF08043174AD3F8001417487C
:107CE00030B41160D3F80054D3F80024144C154973
:107CF0002A43C3F80024D4F84025026001224FF43F
:107D00000030C3F818259A60C1F88000BFF34F8F88
:107D1000BFF36F8F4FF0A04003F588334FF48031ED
:107D20004FF0FF34C3F84813C3F808135A609A6041
:107D3000C0F8084530BC7047E0410020E441002015
:107D400000A0004000E100E01F2816D8474B53F880
:107D500020300E2911D8DFE801F08179716961596D
:107D600050473E352C231A11080003F5E0734FF0FD
:107D7000A04240F2037142F82310704703F5E0730C
:107D80004FF0A04240F2036142F82310704703F520
:107D9000E0734FF0A04240F2035142F823107047C5
:107DA00003F5E0734FF0A04240F2034142F8231084
:107DB000704703F5E0734FF0A04240F2033142F800
:107DC0002310704703F5E0734FF0A04240F2032107
:107DD00042F82310704703F5E0734FF0A04240F2E1
:107DE000031142F82310704703F5E0734FF0A042EF
:107DF0004FF4403142F82310704703F5E0734FF021
:107E0000A0424FF4003142F82310704703F5E073AD
:107E10004FF0A042164942F82310704703F5E07373
:107E20004FF0A042134942F82310704703F5E07366
:107E30004FF0A042042142F82310704703F5E0738D
:107E40004FF0A0420C2142F82310704703F5E07375
:107E50004FF0A042032142F82310704703F5E0736E
:107E60004FF0A042002142F823107047D8BA020018
:107E7000040002000C0003001F2809D8084B53F827
:107E80002020012329B14FF0A0419340C1F80835CB
:107E900070474FF0A0419340C1F80C35704700BFC8
:107EA000D8BA02001F2808D8044B53F820104FF00E
:107EB000A04201238B40C2F80C357047D8BA0200AB
:107EC00090F8A300704700BF38B590F99D30002BA3
:107ED00004460DDB5A0920482032012103F01F031C
:107EE00001FA03F340F82230BFF34F8FBFF36F8FD7
:107EF0002369002101224FF48870C3F80803C3F8F6
:107F00004411C3F858115A60DA6002E0FFF74EFEE0
:107F10002369D3F85821002AF8D0D3F84421002A45
:107F2000F4D04FF0FF320025C3F8005504F11400DF
:107F3000C3F80C25C3F81425C3F80825C3F8102589
:107F400001F062F9D4F8A40001F0A8F8C4F8A45034
:107F500084F8A35038BD00BF00E100E0143001F008
:107F600065B900BF143001F067B900BF143001F0EB
:107F70004FB900BF08B5D0F8A40001F083F800287D
:107F800014BF4020002008BD90F8A33003B970470B
:107F900010B54FF0FF310446D0F8A40000F0F6FE13
:107FA0000023D4F8A4001A46BDE81040194600F09A
:107FB000B1BB00BF10B503680F4A5B6882B0934243
:107FC0008DF8071012D104464FF0FF31D0F8A4000D
:107FD00000F0DCFE9DF8073084F85D302269012353
:107FE0001846C2F84835936002B010BD01220DF169
:107FF0000701984702B010BDFD7F02002DE9F04750
:1080000016460AB30746884600F15D0A00254FF080
:108010000109741B402C28BF40244FF0FF31D7F8D2
:10802000A40000F0B3FE08EB05012246504601F023
:10803000CFFA25443B69AE42C3F84845C3F80890DF
:10804000E7D82846BDE8F08715462846BDE8F08702
:10805000036870B51B6A744DAB4240F0AE800A46AF
:1080600090F8A3100446002940F09F80036990F81F
:108070009F00C3F80C0594F89E00C3F8140594F80B
:10808000A200012800F09D80C3F86C15B2F5966F30
:1080900045D9B2F5166F40F29F80B2F5965F40F277
:1080A0009E80B2F5165F40F29C80B2F5615F40F2AF
:1080B0009A80B2F5964F40F29880B2F5E14F40F2C7
:1080C000968047F612218A4240F29380B2F5164F0D
:1080D00040F292804DF6C0218A4240F29080B2F583
:1080E000614F40F28F80B2F5963F40F28E80B2F53C
:1080F000E13F40F28C80B2F5613F40F28B804B490A
:108100008A4240F28D80B2F5E12F40F28680B2F5CE
:10811000612F94BF4FF070624FF0805201E04FF436
:108120009E2294F99D00C3F82425082104F15D02E4
:108130000025C3F800150028C3F8442504F15C01AC
:10814000C3F820514FF001024FF48875C3F834157D
:10815000C3F838251A60C3F8045327DB344D4109AE
:1081600000F01F062B186031B240602045F8212036
:1081700083F8000394F99D30002B07DB2C4903F0B2
:108180001F0001225B09824041F8232003220021C5
:10819000012000F07DFA00231A461946C4F8A40015
:1081A00000F0B8FA012384F8A33070BD214A00F032
:1081B0000F031A4460231376DCE7BDE87040002209
:1081C000184794F8A010C3F8101594F8A110C3F83C
:1081D0000815C3F86C0559E74FF41D22A1E7164AAC
:1081E0009FE7164A9DE7164A9BE7164A99E7164A03
:1081F00097E74FF4000294E74FF41D0291E74FF424
:1082000065028EE74FF46B028BE7104A89E74FF067
:10821000EB7286E74FF06C7283E74FF0E86280E71D
:108220004FF080627DE700BF5182020090D00300D2
:1082300000E100E0FCEC00E000B01300005027007B
:1082400000F03A0000A04E0000C0750000903A0116
:1082500090F8A330002B40F0B08070B5036904465D
:1082600090F89F00C3F80C0594F89E00C3F814051D
:1082700094F8A20001284AD0B1F5966FC3F86C2596
:1082800054D9B1F5166F40F2A080B1F5965F40F277
:108290009F80B1F5165F40F29D80B1F5615F40F2BD
:1082A0009B80B1F5964F40F29980B1F5E14F40F2D5
:1082B000978047F61222914240F29480B1F5164F12
:1082C00040F293804DF6C022914240F29180B1F588
:1082D000614F40F29080B1F5963F40F28F80B1F54A
:1082E000E13F40F28D80B1F5613F40F28C804A4A17
:1082F000914240F28E80B1F5E12F40F28780B1F5D6
:10830000612F94BF4FF070624FF0805210E094F8EC
:10831000A000C3F8100594F8A100C3F8080542F0C6
:108320000102B1F5966FC3F86C25AAD84FF49E22CE
:1083300094F99D00C3F82425082104F15D0200256D
:10834000C3F800150028C3F8442504F15C01C3F804
:1083500020514FF001024FF48875C3F83415C3F86B
:1083600038251A60C3F8045328DB2C4D410900F06E
:108370001F062B186031B240602045F8212083F899
:10838000000394F99D30002B07DB244903F01F0004
:1083900001225B09824041F82320032200210120B1
:1083A00000F076F900231A461946C4F8A40000F03C
:1083B000B1F9012384F8A33070BD7047184A00F06A
:1083C0000F031A4460231376DBE74FF41D22AFE757
:1083D000144AADE7144AABE7144AA9E7144AA7E7E1
:1083E000144AA5E74FF40002A2E74FF41D029FE7ED
:1083F0004FF465029CE74FF46B0299E70E4A97E74A
:108400004FF0EB7294E74FF06C7291E74FF0E86237
:108410008EE74FF080628BE790D0030000E100E030
:10842000FCEC00E000B013000050270000F03A0020
:1084300000A04E0000C0750000903A0108B5054B41
:108440001BB1054800F0F2FE00B908BDAFF3008093
:1084500008BD00BF00000000FC41002010B5114C19
:108460002369D3F810213AB10022C3F81021D3F8C0
:108470003C2572B901221A60D3F8202102B910BD3F
:108480000021D4F8A400C3F82011BDE8104000F08A
:10849000F1BA94F85C1004F1140000F0A7FE23690F
:1084A000E8E700BFE841002038B50E4C0E4A2046F0
:1084B0004FF47A73002540F8142BC4E9015300F0FF
:1084C00089FE0A4B0A481A6A9B6984F89F30022188
:1084D000A4F8A250C4F8A450206184F89D1084F838
:1084E0009E2038BDE841002090BB0200D8BA0200AF
:1084F0000020004000F108034FF0FF310022C0E9E6
:108500000333816002604360704700BF0023036152
:10851000704700BF4368026810B49C688C609C6818
:108520004B600132616099605DF8044B0861026044
:10853000704700BF30B40D686B1C10D000F1080309
:108540001C465B681A68AA42FAD902684B6001327D
:1085500099608C606160086130BC0260704704699A
:108560006368F2E7036910B4D0E901125C688A60BD
:108570008442516008BF5A601A685DF8044B0021BC
:10858000013A01611A601868704700BF10B50446CF
:10859000FEF752FC022804D02046BDE8104001F04E
:1085A00007B8FEF7ADF8204601F002F80446FEF7E2
:1085B00057F90CB1204610BDFFF706FBFAE700BFE4
:1085C00010B50446FEF738FC02280AD144B1FEF784
:1085D00097F8204600F0F4FFBDE81040FEF740B9E0
:1085E00010BD2046BDE8104000F0EABF10B582B0D3
:1085F0000190FEF785F8019800F0DAFF0446FEF7D7
:108600002FF914B1204602B010BDFFF7DDFA204665
:1086100002B010BD50B110B50446FEF771F8204607
:1086200000F0CEFFBDE81040FEF71AB9704700BF5A
:1086300038B51C469DF8105043B3002908BF1A46B0
:108640000123C4E90F01226084F84630FEF7BAFE28
:10865000D4E90F132268A26001FB03F1CB1A134483
:1086600000200A44FF21A063E36084F844106260A4
:1086700084F8451004F11000FFF73CFF04F12400DA
:10868000FFF738FFFEF7A8FE84F84C50204638BDAF
:10869000F8B5064617460D4669B100FB01F05030AB
:1086A000FFF7A4FF044690B3002200F1500380F8C6
:1086B0004620036007E05020FFF798FF044630B3E0
:1086C00084F846502460C4E90F65FEF77BFED4E9C8
:1086D0000F132268A26001FB03F1CB1A13440020A0
:1086E0000A44FF21A063E36084F84410626084F8C8
:1086F000451004F11000FFF7FDFE04F12400FFF720
:10870000F9FEFEF769FE84F84C702046F8BD00249F
:108710002046F8BD2DE9F047044684B01F4601927B
:10872000884600F12406FEF74DFEA26BE36BDFF8EE
:1087300040939A424FF0000A7CD3022F00F0E88069
:10874000019D002D00F0128102ADBAF1000F00F082
:10875000DB80FEF741FEFDF7D3FFFEF733FE94F812
:108760004430FF2B04BF002384F8443094F8453094
:10877000FF2B04BF002384F84530FEF72DFE28466A
:1087800001A9FEF703FB002840F0F680FEF71AFE71
:10879000A26BE36B9A4261D0FEF71EFEFEF712FE5B
:1087A00094F845506DB2002D05DC12E06B1E13F0FD
:1087B000FF0F5DB20DD0636A304653B1FEF788FA01
:1087C0000028F3D0FEF716FB6B1E13F0FF0F5DB20F
:1087D000F1D1FF2384F84530FEF7FEFDFEF7F2FDF0
:1087E00094F844506DB2002D15DD04F1100A04E038
:1087F0006B1E13F0FF0F5DB20DD02369504653B1CD
:10880000FEF766FA0028F3D0FEF7F4FA6B1E13F0B9
:10881000FF0F5DB2F1D1FF2384F84430FEF7DCFD99
:10882000FEF71EF8FEF7CEFDA26BE36B9A424FF007
:10883000010A82D2226CA56B002A40F0E7802668EC
:10884000002E00F0F9800135A563636A002B7CD10E
:10885000FEF7C2FD012004B0BDE8F08704F1100A64
:10886000FEF7BAFD01995046FEF7B6F9FEF7AAFDEC
:1088700094F845506DB2002D05DC12E06B1E13F02C
:10888000FF0F5DB20DD0636A304653B1FEF720FA98
:108890000028F3D0FEF7AEFA6B1E13F0FF0F5DB2A7
:1088A000F1D1FF2384F84530FEF796FDFEF78AFDEF
:1088B00094F844506DB2002D05DC12E06B1E13F0ED
:1088C000FF0F5DB20DD02369504653B1FEF700FA99
:1088D0000028F3D0FEF78EFA6B1E13F0FF0F5DB287
:1088E000F1D1FF2384F84430FEF776FDFDF7B8FFA1
:1088F000002897D14FF08053C9F8043040BFBFF330
:108900004F8FBFF36F8F8DE72846FEF733FA20E7CE
:10891000226CA56B002A92D04146E06800F058FE18
:10892000226CE36821689B1A8B42E360C2F100026B
:1089300004D263681A44E260022F84D1002D83D1EF
:108940000123A363636A002B82D004F12400FEF7A5
:10895000BFF900283FF47CAF454B4FF080525A607E
:1089600040BFBFF34F8FBFF36F8F71E7FEF734FD4A
:10897000284604B0BDE8F087FEF724FD94F8455082
:108980006DB2002D15DD04F1240604E06B1E13F01A
:10899000FF0F5DB20DD0636A304653B1FEF798F910
:1089A0000028F3D0FEF726FA6B1E13F0FF0F5DB21E
:1089B000F1D1FF2384F84530FEF70EFDFEF702FDEE
:1089C00094F844506DB2002D15DD04F1100604E05A
:1089D0006B1E13F0FF0F5DB20DD02369304653B10B
:1089E000FEF776F90028F3D0FEF704FA6B1E13F0B9
:1089F000FF0F5DB2F1D1FF2384F84430FEF7ECFCA9
:108A0000FDF72EFF002004B0BDE8F087414607BB0C
:108A1000A06800F0DDFDA368216C62680B449342FE
:108A2000A360FFF410AF0135A563636A2268A260FA
:108A3000002B3FF40DAF88E760680135FEF752FA6E
:108A4000A563636A6660002B7FF47FAF002883D143
:108A5000FEE6E06800F0BCFD226CE36821689B1A2A
:108A60008B42E360C2F10002BFF466AF61E700BF72
:108A700000ED00E010B582B0EFF31184402383F3E2
:108A80001188836BC26B9A420FD990F8452001334D
:108A9000FF2A836353B20DD001335BB280F84530B7
:108AA000012084F3118802B010BD002084F31188E6
:108AB00002B010BD436A002BF2D024300191FEF7C2
:108AC00007F90028ECD001990029E9D001200860BD
:108AD000ECE700BF2DE9F043044685B00F46019254
:108AE000FEF770FCA56B002D40F02781019B002B49
:108AF00000F0D28002A8FEF73DF9DFF88C8204F185
:108B00002406FEF769FCFDF7FBFDFEF75BFC94F81D
:108B10004430FF2B04BF002384F8443094F84530E0
:108B2000FF2B04BF002384F84530FEF755FC01A954
:108B300002A8FEF72BF900285BD1FEF743FCA36BDC
:108B4000002B40F0AF80FEF747FC01993046FEF75E
:108B500043F8FEF737FC94F845506DB2002D05DC64
:108B600012E06B1E13F0FF0F5DB20DD0636A30464A
:108B700053B1FEF7ADF80028F3D0FEF73BF96B1EBA
:108B800013F0FF0F5DB2F1D1FF2384F84530FEF7FB
:108B900023FCFEF717FC94F844506DB2002D15DD50
:108BA00004F1100904E06B1E13F0FF0F5DB20DD04D
:108BB0002369484653B1FEF78BF80028F3D0FEF73F
:108BC00019F96B1E13F0FF0F5DB2F1D1FF2384F88A
:108BD0004430FEF701FCFDF743FE002853D14FF06F
:108BE0008053C8F8043040BFBFF34F8FBFF36F8F7F
:108BF00049E0FEF7E7FB94F845506DB2002D05DC27
:108C000012E06B1E13F0FF0F5DB20DD0636A3046A9
:108C100053B1FEF75DF80028F3D0FEF7EBF86B1EBA
:108C200013F0FF0F5DB2F1D1FF2384F84530FEF75A
:108C3000D3FBFEF7C7FB94F844506DB2002D15DD51
:108C400004F1100904E06B1E13F0FF0F5DB20DD0AC
:108C50002369484653B1FEF73BF80028F3D0FEF7EE
:108C6000C9F86B1E13F0FF0F5DB2F1D1FF2384F83A
:108C70004430FEF7B1FBFDF7F3FDFEF7A3FBA36B5A
:108C800053B1FEF7A9FBFEF79DFBA56B002D54D158
:108C9000019B002B7FF435AFFEF79EFB002005B053
:108CA000BDE8F083FEF798FBFEF78CFB94F8455087
:108CB0006DB2002D05DC12E06B1E13F0FF0F5DB2EC
:108CC0000DD0636A304653B1FEF702F80028F3D0A6
:108CD000FEF790F86B1E13F0FF0F5DB2F1D1FF238A
:108CE00084F84530FEF778FBFEF76CFB94F84450AF
:108CF0006DB2002D15DD04F1100904E06B1E13F0B8
:108D0000FF0F5DB20DD02369484653B1FDF7E0FF78
:108D10000028F3D0FEF76EF86B1E13F0FF0F5DB264
:108D2000F1D1FF2384F84430FEF756FBFDF798FDA0
:108D3000FEF748FBA56B002DAAD0226C52B1E1686A
:108D4000636811449942E16024BF2168E1603846BC
:108D500000F03EFC013DA56323692BB9FEF73CFB07
:108D6000012005B0BDE8F08304F11000FDF7B0FF6D
:108D70000028F3D0044B4FF080525A6040BFBFF33D
:108D80004F8FBFF36F8FE9E700ED00E02DE9F0436F
:108D9000044685B000F124060191FEF713FBA36B96
:108DA000DFF8DC820027B946002B40F0D780019D18
:108DB000002D00F0418102ADB9F1000F00F0DE801E
:108DC000FEF70AFBFDF79CFCFEF7FCFA94F8443032
:108DD000FF2B04BF002384F8443094F84530FF2B68
:108DE00004BF002384F84530FEF7F6FA284601A9AF
:108DF000FDF7CCFF00285FD1FEF7E4FAA36B002B50
:108E000040F0C880FEF7E8FA2368002B00F01B81D1
:108E100001993046FDF7E0FEFEF7D4FA94F845508C
:108E20006DB2002D05DC12E06B1E13F0FF0F5DB27A
:108E30000DD0636A304653B1FDF74AFF0028F3D0E6
:108E4000FDF7D8FF6B1E13F0FF0F5DB2F1D1FF23CA
:108E500084F84530FEF7C0FAFEF7B4FA94F84450AF
:108E60006DB2002D15DD04F1100904E06B1E13F046
:108E7000FF0F5DB20DD02369484653B1FDF728FFBF
:108E80000028F3D0FDF7B6FF6B1E13F0FF0F5DB2A5
:108E9000F1D1FF2384F84430FEF79EFAFDF7E0FCA1
:108EA000002853D14FF08053C8F8043040BFBFF3BF
:108EB0004F8FBFF36F8F49E0FEF784FA94F8455067
:108EC0006DB2002D05DC12E06B1E13F0FF0F5DB2DA
:108ED0000DD0636A304653B1FDF7FAFE0028F3D097
:108EE000FDF788FF6B1E13F0FF0F5DB2F1D1FF237A
:108EF00084F84530FEF770FAFEF764FA94F84450AF
:108F00006DB2002D15DD04F1100904E06B1E13F0A5
:108F1000FF0F5DB20DD02369484653B1FDF7D8FE6F
:108F20000028F3D0FDF766FF6B1E13F0FF0F5DB254
:108F3000F1D1FF2384F84430FEF74EFAFDF790FCA0
:108F4000FEF740FAA36BEBB1FEF746FAFEF73AFAEA
:108F5000A36B4FF00109002B3FF429AF2268013BBE
:108F6000A363002A00F088802369002B74D1FEF7E8
:108F700033FA0127384605B0BDE8F0832846FDF7EF
:108F8000F9FE1DE7FEF728FA002F4AD1384605B052
:108F9000BDE8F083FEF720FAFEF714FA94F8455086
:108FA0006DB2002D05DC12E06B1E13F0FF0F5DB2F9
:108FB0000DD0636A304653B1FDF78AFE0028F3D026
:108FC000FDF718FF6B1E13F0FF0F5DB2F1D1FF2309
:108FD00084F84530FEF700FAFEF7F4F994F84450AF
:108FE0006DB2002D15DD04F1100904E06B1E13F0C5
:108FF000FF0F5DB20DD02369484653B1FDF768FEFF
:109000000028F3D0FDF7F6FE6B1E13F0FF0F5DB2E4
:10901000F1D1FF2384F84430FEF7DEF9FDF720FCA0
:1090200094E7FEF7CFF9616A19B1236B1968C1F1B2
:1090300005016068FDF786FFFEF7CEF90027384688
:1090400005B0BDE8F083FEF7BDF96068FDF704FFE9
:109050000746FEF7C1F9DBE604F11000FDF738FE24
:10906000002884D0064B4FF080525A6040BFBFF3B7
:109070004F8FBFF36F8F7AE7FDF79EFF606073E756
:1090800000ED00E010B5044682B0FEF79BF9A06B3E
:109090000190FEF7A1F9019802B010BD104B5A687B
:1090A000904208D0DA68904208BF012204D090F8BC
:1090B000463093B170470022002110B403EBC20484
:1090C00043F8321090F84630616013B15DF8044BFC
:1090D00070475DF8044BFFF79DBAFFF79BBA00BFDE
:1090E000A8420020074B1A681AB19A6802B170476B
:1090F000012210B403EBC20443F8321060605DF843
:10910000044B7047A842002070B504460E46154631
:10911000FEF758F994F84430FF2B04BF002384F87D
:10912000443094F84530FF2B04BF002384F84530C9
:10913000FEF752F9A36B002B45D0FEF743F994F8E4
:1091400045506DB2002D15DD04F1240604E06B1EC0
:1091500013F0FF0F5DB20DD0636A304653B1FDF7D7
:10916000B7FD0028F3D0FDF745FE6B1E13F0FF0F8F
:109170005DB2F1D1FF2384F84530FEF72DF9FEF7FB
:1091800021F994F844506DB2002D15DD04F110065C
:1091900004E06B1E13F0FF0F5DB20DD02369304663
:1091A00053B1FDF795FD0028F3D0FDF723FE6B1EAC
:1091B00013F0FF0F5DB2F1D1FF2384F84430BDE816
:1091C0007040FEF709B92A46314604F12400FDF744
:1091D0003FFDB2E710B540220021044600F006FA38
:1091E0000023C4E91033204610BD00BF10B4D0E9FD
:1091F0001024531C03F03F039C4218BF81545DF8B8
:10920000044B18BF036470470023C0E91033704754
:10921000D0E91023934206D05A1CC35C02F03F02EF
:109220004264184670474FF0FF307047D0E9103065
:10923000181A48BF40307047D0E91023934214BF3A
:10924000C05C4FF0FF30704753B94AB9002908BFDE
:1092500000281CBF4FF0FF314FF0FF3000F06EB917
:10926000ADF1080C6DE904CE00F006F8DDF804E07D
:10927000DDE9022304B070472DE9F047089D04465C
:109280008C46002B40F083808A42174647D9B2FAB9
:1092900082F242B1C2F1200024FA00F091409740DE
:1092A00040EA010C94404FEA1748230CBCFBF8F647
:1092B0001FFA87FE08FB16C143EA014306FB0EF1C5
:1092C000994209D9FB1806F1FF3080F019819942C3
:1092D00040F21681023E3B445B1AA4B2B3FBF8F0A5
:1092E00008FB103344EA034400FB0EFEA64509D9EF
:1092F0003C1900F1FF3380F00581A64540F2028160
:1093000002383C4440EA0640A4EB0E0400261DB19E
:10931000D4400023C5E900433146BDE8F08702B9D7
:10932000FFDEB2FA82F2002A50D1CB1B4FEA174E71
:109330001FFA87F80126B3FBFEFC210C0EFB1C3341
:1093400041EA034108FB0CF38B4207D979180CF171
:10935000FF3002D28B4200F2E9808446C91AA3B2E0
:10936000B1FBFEF00EFB101143EA014408FB00F8CC
:10937000A04507D93C1900F1FF3302D2A04500F205
:10938000D9801846A4EB080440EA0C40BFE78B42A2
:1093900009D9002D00F0B1800026C5E90001304652
:1093A0003146BDE8F087B3FA83F6002E4AD18B42EE
:1093B00002D3824200F2B880841A61EB03010120DB
:1093C0008C46002DA8D0C5E9004CA5E7C2F12003CA
:1093D00020FA03F6974001FA02F04FEA174ED940FF
:1093E0003043030CB1FBFEF61FFA87F80EFB161193
:1093F00043EA014306FB08F1994204FA02F409D951
:10940000FB1806F1FF3C80F08D80994240F28A8083
:10941000023E3B445B1A81B2B3FBFEF00EFB1033FD
:1094200041EA034100FB08F38B4207D9791800F1A8
:10943000FF3C73D28B4271D902383944CB1A40EACF
:10944000064678E7C6F1200C03FA06F422FA0CF37C
:109450001C4320FA0CF701FA06F34FEA144E21FAE6
:109460000CF11F433B0CB1FBFEF91FFA84F80EFB15
:10947000191143EA014109FB08FA8A4502FA06F28A
:1094800000FA06F308D9611809F1FF3048D28A457D
:1094900046D9A9F102092144A1EB0A01BFB2B1FBEF
:1094A000FEF00EFB101147EA014700FB08F8B84533
:1094B00007D9E71900F1FF312ED2B8452CD902386F
:1094C000274440EA0940A7EB0807A0FB02894F4563
:1094D000C64649461AD317D05DB1B3EB0E0267EB0F
:1094E000010707FA0CFCF2404CEA0202F740C5E91A
:1094F000002700263146BDE8F0872E4628460BE7B8
:109500000646E9E61846FDE64345E5D2B8EB020E0D
:1095100069EB04010138DFE70846D2E760468DE7D2
:109520008146B9E7664675E730464AE7ACF1020C7A
:10953000394413E702383C4424E700BF704700BFBA
:1095400008B5074B044613B10021AFF30080054B6B
:109550001868836A03B19847204602F0AFFA00BF4B
:1095600000000000BCBB020070B50D4D0D4C641B2B
:10957000A4100026A64209D10B4D0C4C02F0A0FA13
:10958000641BA4100026A64205D170BD55F8043B0B
:1095900098470136EEE755F8043B98470136F2E765
:1095A000D8370020D8370020D8370020E4370020F3
:1095B000024B0146186800F081B800BF0836002051
:1095C000024B0146186800F029B800BF0836002099
:1095D0000A44914200F1FF3300D1704710B511F8F1
:1095E000014B03F8014F9142F9D110BD02440346EB
:1095F000934200D1704703F8011BF9E713B54A43C2
:109600001146019200F05AF8044618B1019A00215F
:10961000FFF7ECFF204602B010BD000037B500296F
:1096200048D051F8043C0190002BA1F10404B8BFCC
:10963000E41801F067FA204A01981368154633B917
:109640006360146003B0BDE8304001F061BAA3422A
:109650000BD921686218934204BF1A685B68636083
:1096600004BF521822602C60ECE71A465B680BB10D
:10967000A342FAD911685518A5420BD12468214498
:109680005418A3421160DDD11C685B68536021440B
:109690001160D7E702D90C230360D3E7256861196D
:1096A0008B4204BF19685B68636004BF491921607D
:1096B0005460C7E703B030BD90420020F8B5CD1C20
:1096C00025F0030508350C2D38BF0C25002D064666
:1096D00001DBA94203D90C2333600020F8BD01F05F
:1096E00011FA21490A6814469CB9204F3B6823B9F6
:1096F0002146304600F080FB38602946304600F0B5
:109700007BFB431C23D10C233360304601F000FA6D
:10971000E3E723685B1B17D40B2B03D923601C449E
:10972000256004E06368A2420CBF0B6053603046C2
:1097300001F0EEF904F10B00231D20F00700C21A1E
:10974000CCD01B1AA350C9E722466468CCE7C41CDE
:1097500024F00304A042E3D0211A304600F04CFB71
:109760000130DDD1CFE700BF9042002094420020BD
:109770002DE9FF4755EC104B002D0E4619462B46A0
:10978000BBBF05F100431D4600232D230B700D9B2D
:10979000DDF830A0914623F02008BCBF22461446D5
:1097A000B8F1460F05D0B8F1450F00D101360221BE
:1097B00000E0032103AB019302AB009345EC104B97
:1097C0005346324600F0BCFBB8F1470F074602D1C2
:1097D00019F0010F22D0B8F1460F07EB060910D19E
:1097E0003B78302B0AD1002200232046294602F084
:1097F000E7F818B9C6F10106CAF80060DAF80030D7
:109800009944002200232046294602F0D9F808B1E5
:10981000CDF80C903022039B4B4507D3039B0E9A47
:10982000DB1B3846136004B0BDE8F087591C039178
:109830001A70F0E7F7B503460029B8BF494203F8AC
:10984000022BB4BF2D222B22092942702ADD0DF1F3
:109850000704A4460A27A6460A4691FBF7F607FB2B
:1098600016153035632A04F1FF340EF8015C3146D9
:10987000F1DC3031AEF1020504F8011C441C29462C
:1098800061450AD30DF10902A2EB0E02654588BFBE
:1098900000221344181A03B0F0BD11F8012B04F88C
:1098A000012FEDE7302330318370C170031DF1E7E4
:1098B0002DE9F04F2DED028B8DB00C46DDF8608068
:1098C00016461F46054601F019F9D0F800A050468B
:1098D00000F0A2FA00230A9323680593D8F8003019
:1098E00094F818B0073323F0070303F10802C8F80F
:1098F0000020D3E90023C4E91223D4E9128929F016
:1099000000430793CDF8188008EE100A9F4BDDE95D
:1099100006014FF0FF3202F085F888BBDDE9060151
:109920009A4B4FF0FF3202F05FF848BB0022002351
:109930004046494602F04EF810B12D2384F84330DA
:10994000934B9448BBF1470F94BF9846804603233E
:109950002361059B23F0040222604FF00009009769
:1099600033460BAA2146284600F0D8F9013040F0D2
:1099700090804FF0FF300DB0BDEC028BBDE8F08F52
:1099800042464B464046494602F04CF840B14B46F1
:10999000002BBCBF2D2384F843307F487F4BD1E799
:1099A00063680BF0DF0206925A1C3FD10623636006
:1099B000059B616843F48062002303930AABCDE901
:1099C00001B309AB49EC108B009322600DF1230326
:1099D0002846FFF7CDFE069B0999472B804608D104
:1099E000C81C02DB6368994241DDABF1020B5FFAF0
:1099F0008BFBBBF1650F20D801395A4604F15000AA
:109A00000991FFF717FF0A9A1318012A814623616B
:109A100002DC2268D20701D5013323619DF823308F
:109A2000002B9CD02D2384F8433098E7069A472AD0
:109A3000BED1002BBCD10123B9E7BBF1660F18D111
:109A4000002963680BDD216113B92268D00702D5B4
:109A500001330B442361A1654FF00009DEE713B920
:109A60002268D20701D50233F4E70123F2E74FF071
:109A7000670B0A9B994205DB23682161D807EAD569
:109A80004B1CE7E70029D4BFC1F1020201221344B5
:109A9000E0E723685A0507D4236942463146284641
:109AA000B84701302CD164E7BBF1650F40F2E0808C
:109AB000D4E912010022002301F082FF002834D0F3
:109AC000374A012331462846B84701303FF451AFA9
:109AD000DDE909239A4202DB2368D80710D518EE86
:109AE000103A524631462846B84701303FF441AF5C
:109AF0004FF0000804F11A090A9B013B434509DCB9
:109B000023689B0700F10581E0680B9B9842B8BF72
:109B1000184630E701234A4631462846B847013007
:109B20003FF427AF08F10108E6E7099B002B39DC79
:109B30001B4A012331462846B84701303FF419AF8C
:109B4000DDE90923134302D12368D907D8D518EEDC
:109B5000103A524631462846B84701303FF409AF23
:109B60004FF0000904F11A0A099B5B424B4501DCE6
:109B70000A9B92E70123524631462846B8470130F6
:109B80003FF4F7AE09F10109EEE700BFFFFFEF7FF9
:109B9000C0BB0200C4BB0200CCBB0200C8BB0200B9
:109BA000D0BB02000A9AA36D9A42A8BF1A46002AA7
:109BB000914637DC4FF0000B29EAE97904F11A02EB
:109BC000A36D0593A3EB09035B4533DCDDE90923B2
:109BD0009A423BDB2368DA0738D40A9A059B099935
:109BE000D31AA2EB01099945A8BF9946B9F1000F14
:109BF00035DC4FF0000829EAE97904F11A0ADDE9B9
:109C000009239B1AA3EB090343457FF779AF01238F
:109C1000524631462846B84701303FF4AAAE08F113
:109C20000108ECE71346314642462846B847013062
:109C3000C0D19EE60123314628460592B84701303F
:109C40003FF497AE059A0BF1010BB9E718EE103A05
:109C5000524631462846B8470130BED189E6059ABA
:109C60004B46424431462846B8470130C1D180E6D0
:109C70000A9A012A01DCDB0738D501234246314626
:109C80002846B84701303FF474AE18EE103A5246F9
:109C900031462846B84701303FF46BAED4E9120193
:109CA0000022002301F08CFED8B90A9B08F10102C2
:109CB000013B31462846B84701300ED159E6012311
:109CC000524631462846B84701303FF452AE08F1BB
:109CD00001080A9B013B4345F1DC4B4604F150026D
:109CE000DCE64FF0000804F11A0AF2E701234246CD
:109CF000DFE701234A4631462846B84701303FF4A2
:109D000038AE08F10108E3680B995B1A4345F0DCB3
:109D1000FAE64FF0000804F11909F4E72DE9F047DD
:109D2000164699468A680B69DDF820809342B8BFD1
:109D30001346336091F8432007460C460AB10133BD
:109D400033602368990642BF336802333360256865
:109D500015F0060506D104F1190AE36832689B1A6A
:109D6000AB4226DC94F84320131E226818BF01235F
:109D700092062BD404F1430249463846C0470130CD
:109D80001ED02368E568326803F00603042B08BF81
:109D9000AD1AA36822690CBF25EAE5750025934238
:109DA000C4BF9B1AED1800261A34B5421AD1002000
:109DB00008E00123524649463846C047013003D1E6
:109DC0004FF0FF30BDE8F0870135C6E7E1185A1CB7
:109DD000302081F84300224494F8451082F8431063
:109DE0000233C7E70123224649463846C0470130BF
:109DF000E6D00136D9E7000038B5064D0023044609
:109E000008462B6001F04CFE431C02D12B6803B1C5
:109E1000236038BDB8420020034613F8012B002A06
:109E2000FBD1181A013870472DE9F74F03690C6907
:109E3000A3420746C0F28180013C01F1140800F101
:109E4000140505EB8403019358F8243055F82420B9
:109E500001339A424FEA840B08EB8409B2FBF3F614
:109E600031D34FF0000E4046AC46F24650F8042B7A
:109E700093B206FB03E34FEA134E9BB2AAEB030334
:109E8000120CDCF800A006FB02E213FA8AF34FEA98
:109E9000124E1FFA82FADCF80020CAEB124202EBE3
:109EA00023429BB243EA024381454CF8043B4FEA0C
:109EB000224ADBD255F80B302BB9019B043B9D4263
:109EC0001A462ED33C61384601F053F8002824DBB3
:109ED000013628464FF0000C58F8042BD0F800E06B
:109EE00093B2ACEB0303120C13FA8EF3C2EB1E42D7
:109EF00002EB23429BB243EA0243C14540F8043BD4
:109F00004FEA224CE8D255F8242005EB840322B90D
:109F1000043B9D421A460AD33C61304603B0BDE87B
:109F2000F08F1268043B002ACCD1013CC7E71268CD
:109F3000043B002AF0D1013CEBE70020EEE70000F3
:109F40002DE9F04F2DED028B57EC106B95B0456A63
:109F5000DDF880800591CDE90267044609920F93F0
:109F60003DB91020FEF712FBC0E9015560620560A3
:109F7000C560636A196851B15A684A600123934009
:109F80008B60204600F0FEFD636A00221A603B1ED3
:109F9000B9BF23F0004303930023C8F80030DDF875
:109FA0000C90B74BBCBF0122C8F8002033EA09036C
:109FB0001BD10F9A42F20F731360C9F3130333439B
:109FC00000F07585219B63B9AE4B25E0AE4B009345
:109FD0000833219A1360009815B0BDEC028BBDE8E0
:109FE000F08FA84B00930333F3E79DED027B002233
:109FF00051EC170B00238DED0A7B01F0E1FC80464C
:10A0000060B10F9A01231360219B002B00F04C8557
:10A010009E4B219A1360013B0093DCE79DED0A0BF8
:10A0200012AA13A9204601F036F8C9F30A55824650
:10A03000002D7ED00B9BCDF84080C3F31303DDE9E8
:10A040000A6743F07F5747F44017A5F2FF35904B5E
:10A0500000223046394601F093F883A3D3E9002368
:10A0600001F046FA82A3D3E9002301F08BF80646FB
:10A0700028460F4601F0D2F97FA3D3E9002301F06F
:10A0800037FA02460B463046394601F07BF8064661
:10A090000F4601F0DDFC00228146002330463946A0
:10A0A00001F098FC48B1484601F0B8F932463B4609
:10A0B00001F086FC08B909F1FF39B9F1160F56D83D
:10A0C000744B03EBC903D3E90023DDE90A0101F076
:10A0D00081FC00284DD009F1FF3900230E93129B1B
:10A0E0005D1B6B1E049343BF0023C5F1010804935D
:10A0F0004FF00008B9F1000F3DDB049BCDF8349020
:10A100004B44049300230693059B092B00F29A808D
:10A11000052BC4BF043B0593059BA3F10203CCBFF1
:10A1200000250125032B00F29980DFE803F02C7D48
:10A130007B89DDE912531D4405F23243202BC1BF58
:10A14000C3F1400305F2124009FA03F326FA00F0C6
:10A15000DABFC3F1200306FA03F0184301F04EF909
:10A1600001230646A1F1F877013D10936FE7012323
:10A17000B4E70E90B3E7C9F1000306930023A8EB00
:10A1800009080D93C0E700230893099B002B00F3F7
:10A1900085804FF0010BCDF804B05B46CDF824B0BC
:10A1A000666A00227260042202F11400984271680B
:10A1B0007AD9204600F0B2FC636A30601B680093D5
:10A1C000019B0E2B00F2F580002D00F0F280B9F11A
:10A1D000000F7DDD2F4A09F00F0302EBC30393ED5F
:10A1E000007B19F4807F4FEA2917B0EE478AF0EE22
:10A1F000678A5DD0284BDDE90A01D3E9082301F025
:10A20000A1FACDE9020107F00F070325224E002F26
:10A2100050D1DDE9020153EC182B01F093FACDE99E
:10A2200002016FE00123AFE700230893099B09EBCC
:10A23000030B0BF10103012B0193B8BF0123AFE71F
:10A240000123F2E701250023059308954FF0FF3B1A
:10A250000022CDF804B012230992A1E7012308934C
:10A26000F4E700BFAFF3008061436F63A787D23F7D
:10A27000B3C8608B288AC63FFB799F501344D33FF5
:10A280000000F07FDBBB0200D2BB0200D1BB0200AA
:10A290000000F83F08BC0200E0BB0200DDF824B07B
:10A2A000CDF804B05B467BE70131716052007BE77B
:10A2B0000225ABE7F90708D551EC180BD6E90023C6
:10A2C00001F016F941EC180B01357F1008369EE7B6
:10A2D00000F0AB80C9F10006AA4BAB4F06F00F02AD
:10A2E00003EBC203D3E90023DDE90A0101F000F921
:10A2F000CDE90201361100230225002E40F08A80AC
:10A30000002B8CD10E9B002B00F09180DDE90267C1
:10A310009E4B00223046394601F05CFB002800F0DD
:10A320008680019B002B00F08280BBF1000F3CDD9A
:10A3300009F1FF3307930022954B3046394601F06F
:10A34000D7F8CDE902010135CDF830B0DDE902677B
:10A35000284601F063F832463B4601F0C9F88D4BC0
:10A36000002200F00FFFA1F15073CDE90201039329
:10A370000C9B002B60D1884B00223046394600F000
:10A38000FFFEDDE9022306460F4601F041FB0028EF
:10A3900040F09982DDE90221304601F1004339465F
:10A3A00001F018FB002840F08B82DDE90A23CDE99B
:10A3B0000223139B002BC0F25B81B9F10E0F00F357
:10A3C0005781704B03EBC90393ED007B099BB0EE03
:10A3D000478AF0EE678A002B80F2E280019B002B17
:10A3E00000F3DE8040F06C826B4B51EC170B0022C7
:10A3F00001F07EF8DDE9022301F000FB019E374603
:10A40000002840F04282009D312305F8013B09F10C
:10A4100001093EE2F20705D5D7E9002301F068F80B
:10A42000013501237610083767E702256AE7019BAB
:10A43000CDF81C900C9389E700990C980C9A514B1D
:10A440009DED027B014402910899B0EE478AF0EE3F
:10A45000678A03EBC20353E90223002945D04F4921
:10A46000002001F06FF953EC182B00F089FE009DDD
:10A4700041EC180B3946304601F0EAFA0C9000F036
:10A48000CDFF02460B463046394600F079FE0C9B64
:10A49000303305F8013B53EC182B06460F4601F00C
:10A4A00099FA002865D132463B463849002000F031
:10A4B00067FE53EC182B01F08DFA002840F0B880AD
:10A4C000029B9D423FF471AF314B51EC180B0022BF
:10A4D00001F00EF82E4B41EC180B002230463946A5
:10A4E00001F006F806460F46C4E751EC170B00F0E2
:10A4F000FFFF029B009D0C9341EC180B3946304640
:10A5000001F0A6FA119000F089FF02460B46304692
:10A51000394600F035FE119B303305F8013B029BB4
:10A520009D4206460F464FF0000225D11B4B51ECD1
:10A53000180B00F027FE02460B463046394601F064
:10A5400067FA002874D153EC182B1449002000F04E
:10A5500017FE02460B463046394601F03BFA00280A
:10A560003FF423AF0C9D6B1E0C9315F8013C302B70
:10A57000F8D0DDF81C9049E0054B00F0B9FF064625
:10A580000F46BBE708BC0200E0BB02000000F03F42
:10A590000000244000001C40000014400000E03F88
:10A5A000DDE90267009D53EC182B3046394601F077
:10A5B000C9F801F04DFA804600F030FF53EC182B3B
:10A5C00000F096FF02460B463046394608F1300649
:10A5D00000F0D6FD05F8016B009E019FAE1BB7424F
:10A5E00002460B4637D100F0CDFD53EC182B064642
:10A5F0000F4601F00DFAC8B953EC182B3046394616
:10A6000001F0DEF910B118F0010F0FD120465146CC
:10A6100000F0B8FA00232B700F9B09F101001860BD
:10A62000219B002B3FF4D7AC1D60D4E4CDF81C90E7
:10A630002B461D4613F8012D392A08D1009A9A425B
:10A64000F7D1079A00990132079230220A701A78DE
:10A6500001321A708DE79E4B002200F049FF002264
:10A66000002306460F4601F0ABF900289BD0CDE74A
:10A67000089A002A00F0C680059A012A00F3AA80F1
:10A68000109A002A00F0A28003F23343069E45464A
:10A69000049A01211A4420469844049200F017FBC2
:10A6A0000746002D0BDD049B002B08DDAB42049A0E
:10A6B000A8BF2B46A8EB0308ED1AD31A0493069BF8
:10A6C000FBB1089B002B00F0A180002E11DD394664
:10A6D0003246204600F0A0FB52460146074620467F
:10A6E00000F0FEFA51460790204600F04BFA079B17
:10A6F0009A46069B9A1B04D05146204600F08CFBDC
:10A7000082460121204600F0E2FA0D9B002B06460E
:10A710007EDD1A460146204600F07EFB059B012B9C
:10A72000064678DD00230693336906EB8303186938
:10A7300000F07DFAC0F12000049B184410F01F00C7
:10A7400000F08880C0F12003042B40F38180C0F129
:10A750001C00049B0344804405440493B8F1000F9B
:10A7600005DD51464246204600F0A4FB8246049B8C
:10A77000002B05DD31461A46204600F09BFB0646BD
:10A780000E9B002B68D03146504600F0F2FB0028AB
:10A7900062DA002351460A22204600F00AFA089B9A
:10A7A00009F1FF398246002B00F0888139460023E9
:10A7B0000A22204600F0FDF9BBF1000F074600F326
:10A7C0008F80059B022B40F38B804DE0129BC3F1E1
:10A7D00036035BE7019B5E1E069BB342BFBF069B31
:10A7E0000696F21A0D9BB6BF9B189E1B0D93019BFC
:10A7F000B8BF0026002BB5BFA8EB0305019B0023C3
:10A80000454645E7069E089F45464AE7069A73E790
:10A81000059B012B18DC029BB3B9039BC3F3130305
:10A82000A3B9039B23F000431B0D1B052BB1049B15
:10A830000133049308F10108012306930D9B002BBB
:10A840007FF472AF012077E70023F6E7029BF4E77D
:10A8500084D018461C307CE7019B002B3ADC059B1A
:10A86000022B37DDDDF804B0BBF1000F0DD131460E
:10A870005B460522204600F09CF9014606465046FC
:10A8800000F077FB00283FF7BEAD099B009D6FEA03
:10A8900003094FF000083146204600F073F9002FFD
:10A8A0003FF4B4AEB8F1000F05D0B84503D041462F
:10A8B000204600F067F93946204600F063F9A5E626
:10A8C00000263746E1E70C9EDDF81C9037469AE5F6
:10A8D00000002440089BDDF804B0002B00F0F58058
:10A8E000002D05DD39462A46204600F0E3FA0746EA
:10A8F000069B002B55D07968204600F00FF93A6985
:10A9000002320546920007F10C010C30FEF760FEA2
:10A9100001222946204600F0CDFA009B0133019325
:10A92000009B5B440793029B03F00103B846069328
:10A930000746019B3146504603F1FF3BFFF774FA8F
:10A9400003463033029041465046089300F011FB15
:10A950003A4604903146204600F027FBC268089B27
:10A96000054602BB0146504600F003FB089B024629
:10A9700029462046CDE9083200F004F9059B099AE2
:10A98000019D43EA0201069B0B43089B0DD1392B25
:10A9900027D0049A002A01DD029B31338BF8003066
:10A9A00079E73846B9E70122E2E70499002904DB98
:10A9B000059801430698014320D1002AEEDD514657
:10A9C00001222046019300F075FA3146824600F0DC
:10A9D000D0FA0028019B02DCE0D1DA07DED5392B62
:10A9E000DAD139238BF800302B461D46013B15F890
:10A9F000012C392A50D001321A704CE7002A03DDAD
:10AA0000392BEED00133C9E7019A079902F8013CCE
:10AA10008A422AD0514600230A22204600F0C9F873
:10AA2000B84582464FF000034FF00A0241462046E7
:10AA300007D100F0BEF880460746019B0133019321
:10AA400077E700F0B6F83946804600230A22204610
:10AA500000F0AFF80746F0E7BBF1000F009ACCBF5B
:10AA60005D46012515444FF000085146012220465D
:10AA7000019300F01FFA3146824600F07AFA00286E
:10AA8000B2DC02D1019BDB07AED42B461D4613F886
:10AA9000012D302AFAD0FEE6009A9A42A5D1312340
:10AAA00009F101091370F6E6124BFFF7B5BA219BC5
:10AAB000002B7FF48BAA104BFFF7AEBABBF1000F4F
:10AAC00003DC059B022B3FF7CFAE009D314650467D
:10AAD000FFF7AAF900F1300305F8013B009AAA1A22
:10AAE0009345B9DD514600230A22204600F061F863
:10AAF0008246EBE7D0BB0200D2BB020000487047A1
:10AB00005C370020014800F016BB00BFC0420020A7
:10AB1000014800F011BB00BFC042002070B5466A7A
:10AB200004460D463EB91020FDF730FDC0E9016630
:10AB300060620660C660666AF36883B1636ADB6858
:10AB400053F82500B8B9012101FA05F6721D9200EB
:10AB50002046FEF753FD60B1C0E901560EE0212208
:10AB600004212046FEF74AFD636AF060DB68002B93
:10AB7000E4D1002070BD026843F825200023C0E91D
:10AB80000333F7E770B5466A05460C463EB9102018
:10AB9000FDF7FCFCC0E9016668620660C6603CB176
:10ABA0006B6A6268DB6853F82210216043F8224028
:10ABB00070BD2DE9F0410E69074698460C4601F13B
:10ABC000140000230568A9B202FB01814FEA114C71
:10ABD0002D0C02FB05C589B2013301EB05419E42F4
:10ABE00040F8041B4FEA1548ECDCB8F1000F1BD00D
:10ABF000A368B34212DC616838460131FFF78EFF6B
:10AC00002269023204F10C01054692000C30FEF775
:10AC1000DFFC21463846FFF7B5FF2C4604EB8603E0
:10AC20000136C3F8148026612046BDE8F081030C8C
:10AC30001B04D3B90004102310F07F4F04BF00029F
:10AC4000083310F0704F04BF0001043310F0404F80
:10AC500004BF80000233002805DB10F0804F03F1B1
:10AC6000010308BF2023184670470023E4E7036868
:10AC700013F0070201460BD0DA0724D4980749BF26
:10AC80005B089B0801200B605CBF0B6002207047D3
:10AC900098B2B0B91B0C102013F0FF0F04BF1B0AB1
:10ACA00008301A0704BF1B0904309A0704BF9B0829
:10ACB0000230DA0703D45B0800F1010005D00B6015
:10ACC00070471046E8E7002070472020704710B515
:10ACD0000C460121FFF722FF01224461026110BDF1
:10ACE0002DE9F04F15460A692B699A42B8BF0B4609
:10ACF0000C46BCBF2C461D462769D5F81090A368AA
:10AD0000616807EB0906B342B8BF013185B0FFF7B0
:10AD100005FF00F1140101EB86080B4600224345B4
:10AD20001DD304F1140305F1140203EB870702EBB2
:10AD3000890302933B1B153B23F00303043304F107
:10AD40001505AF4238BF04230193029B039293423F
:10AD500008D8002E5ADC066105B0BDE8F08F43F834
:10AD6000042BDCE7B2F800A0BAF1000F24D004F104
:10AD7000140E89464FF0000C5EF8045BD9F800B061
:10AD8000ABB21FFA8BFB0AFB03B34FEA154BD9F8A2
:10AD9000005063444FEA154C0AFB0BC505EB134505
:10ADA0009BB243EA0543774549F8043B4FEA154C0B
:10ADB000E2D8019B41F803C0039BB3F80290043230
:10ADC000B9F1000F20D00B6804F1140C8E464FF03F
:10ADD000000ABCF80050BEF802B009FB05B5AA4451
:10ADE0009BB243EA0A434EF8043B5CF8043BBEF8CE
:10ADF00000501B0C09FB035303EB1A4367454FEA52
:10AE0000134AE6D8019D4B5104319EE758F8043DA2
:10AE1000002BA0D1013E9CE72DE9F843154612F026
:10AE2000030206460F4607D0214C013A002354F88E
:10AE30002220FFF7BEFE0746AD1035D0746A3CB93C
:10AE40001020FDF7A3FBC0E9014470620460C460F8
:10AE5000D6F82480D8F808404CB940F27121304629
:10AE6000FFF735FF0023C8F80800044603604FF0E1
:10AE70000009EB070AD5394622463046FFF730FF76
:10AE8000394680463046FFF77DFE47466D100BD0B1
:10AE9000206838B9224621463046FFF721FF20605E
:10AEA000C0F800900446E4E73846BDE8F88300BFE8
:10AEB000D0BC02002DE9F0470C464968236903EB3A
:10AEC0006218A368074691464FEA621A08F1010624
:10AED000B3423FDB3846FFF721FE0023054600F171
:10AEE000140100F110021846534536DB20692AEAA6
:10AEF000EA7A04F1140319F01F0901EB8A0103EB4C
:10AF0000800C2ED0C9F1200E8A460022186800FA63
:10AF100009F002434AF8042B53F8042B9C4522FA0B
:10AF20000EF2F3D8ACEB0403153B23F00303043318
:10AF300004F11500604588BF0423CA500AB108F126
:10AF40000206013E38462E612146FFF71BFE2846C9
:10AF5000BDE8F08701315B00BAE742F8040F013326
:10AF6000C2E7043953F8042B41F8042F9C45F9D863
:10AF7000E7E730B502690C69121B0ED100F114032A
:10AF8000143103EB840001EB840150F8045D51F8A7
:10AF9000044DA54203D005D30122104630BD8342A3
:10AFA000F3D3FAE74FF0FF32F7E72DE9F84F0C46FD
:10AFB0000646114620461746FFF7DBFF051E08D15F
:10AFC00029463046FFF7AAFD0123C0E90435BDE854
:10AFD000F88FA4BF3B46274630467968A6BF1C467B
:10AFE00000250125FFF79AFD3E69C560256907F137
:10AFF000140104F1140900F1140E07F1100201EB21
:10B00000860C09EB8505F246002759F8043B52F8F7
:10B0100004BF1FFA83F817FA8BF71B0CA7EB08087D
:10B02000C3EB1B4303EB28431FFA88F81F144D455D
:10B0300048EA03434AF8043BE7D82B1B153B23F0AF
:10B04000030304331534A54238BF04231944734461
:10B050009E460D4665450ED30CF10302521A22F0AE
:10B06000030203398C4538BF00221A4452F8043DCC
:10B070007BB10661ABE755F8048B17FA88F422140C
:10B0800002EB1842A4B244EA02444EF8044B1714EF
:10B09000E0E7013EEAE72DE9F7438946012157EC55
:10B0A000106B9046FFF73AFDC7F30A550446C7F305
:10B0B000130335BB002E019328D068460096FFF796
:10B0C000D6FD009900B3019AC0F1200302FA03F300
:10B0D0000B43C24063610192019BA361002B14BF2B
:10B0E000022201222261D5B1A5F233450544C9F8F7
:10B0F0000050C0F13500C8F80000204603B0BDE89C
:10B10000F08343F48013D5E76161E5E701A8FFF719
:10B11000AEFD019B6361012222612030E3E704EB75
:10B120008203A0F23240C9F800001869FFF77FFDE2
:10B13000C0EB4210DFE77047704782B001B901A948
:10B1400042B14BB113780B601278101E18BF01206A
:10B1500002B070471046FBE76FF00100F8E749B115
:10B16000FF2A85BF8A2303600A704FF0FF3098BF23
:10B17000012070470846704781F0004102E000BF9F
:10B1800083F0004330B54FEA41044FEA430594EAA7
:10B19000050F08BF90EA020F1FBF54EA000C55EAE2
:10B1A000020C7FEA645C7FEA655C00F0E2804FEAB3
:10B1B0005454D4EB5555B8BF6D420CDD2C4480EA95
:10B1C000020281EA030382EA000083EA010180EAC5
:10B1D000020281EA0303362D88BF30BD11F0004F13
:10B1E0004FEA01314FF4801C4CEA113102D0404249
:10B1F00061EB410113F0004F4FEA03334CEA133384
:10B2000002D0524263EB430394EA050F00F0A7809B
:10B21000A4F10104D5F1200E0DDB02FA0EFC22FA96
:10B2200005F2801841F1000103FA0EF2801843FA8A
:10B2300005F359410EE0A5F120050EF1200E012A7B
:10B2400003FA0EFC28BF4CF0020C43FA05F3C018B9
:10B2500051EBE37101F0004507D54FF0000EDCF132
:10B26000000C7EEB00006EEB0101B1F5801F1BD3DB
:10B27000B1F5001F0CD349085FEA30004FEA3C0CDF
:10B2800004F101044FEA445212F5800F80F09A80D5
:10B29000BCF1004F08BF5FEA500C50F1000041EBD9
:10B2A000045141EA050130BD5FEA4C0C404141EBDD
:10B2B0000101013C28BFB1F5801FE9D291F0000FD8
:10B2C00004BF01460020B1FA81F308BF2033A3F187
:10B2D0000B03B3F120020CDA0C3208DD02F1140C7E
:10B2E000C2F10C0201FA0CF021FA02F10CE002F1B9
:10B2F0001402D8BFC2F1200C01FA02F120FA0CFCB2
:10B30000DCBF41EA0C019040E41AA2BF01EB0451FA
:10B31000294330BD6FEA04041F3C1CDA0C340EDCF8
:10B3200004F11404C4F1200220FA04F001FA02F33B
:10B3300040EA030021FA04F345EA030130BDC4F1F9
:10B340000C04C4F1200220FA02F001FA04F340EAEE
:10B350000300294630BD21FA04F0294630BD94F09F
:10B36000000F83F4801306BF81F480110134013D86
:10B370004EE77FEA645C18BF7FEA655C29D094EAF7
:10B38000050F08BF90EA020F05D054EA000C04BF75
:10B390001946104630BD91EA030F1EBF0021002060
:10B3A00030BD5FEA545C05D14000494128BF41F0FF
:10B3B000004130BD14F580043CBF01F5801130BD63
:10B3C00001F0004545F0FE4141F470014FF00000EE
:10B3D00030BD7FEA645C1ABF194610467FEA655C9F
:10B3E0001CBF0B46024650EA013406BF52EA033541
:10B3F00091EA030F41F4002130BD00BF90F0000F2F
:10B4000004BF0021704730B54FF4806404F132046A
:10B410004FF000054FF0000150E700BF90F0000F23
:10B4200004BF0021704730B54FF4806404F132044A
:10B4300010F0004548BF40424FF000013EE700BF1A
:10B4400042004FEAE2014FEA31014FEA02701FBFAA
:10B4500012F07F4393F07F4F81F06051704732F0DC
:10B460007F4208BF704793F07F4F04BF41F4002133
:10B47000704730B54FF4607401F0004521F0004191
:10B480001CE700BF50EA010208BF704730B54FF01B
:10B4900000050AE050EA010208BF704730B511F01C
:10B4A000004502D5404261EB41014FF4806404F154
:10B4B00032045FEA915C3FF4D8AE4FF003025FEADA
:10B4C000DC0C18BF03325FEADC0C18BF033202EB5E
:10B4D000DC02C2F1200300FA03FC20FA02F001FAB8
:10B4E00003FE40EA0E0021FA02F11444BDE600BF5B
:10B4F00070B54FF0FF0C4CF4E06C1CEA11541DBF0A
:10B500001CEA135594EA0C0F95EA0C0F00F0DEF8D4
:10B510002C4481EA030621EA4C5123EA4C5350EAB9
:10B52000013518BF52EA033541F4801143F480130A
:10B5300038D0A0FB02CE4FF00005E1FB02E506F09B
:10B540000042E0FB03E54FF00006E1FB03569CF0F0
:10B55000000F18BF4EF0010EA4F1FF04B6F5007FF6
:10B5600064F5407404D25FEA4E0E6D4146EB060668
:10B5700042EAC62141EA55514FEAC52040EA5E50F1
:10B580004FEACE2EB4F1FD0C88BFBCF5E06F1ED89B
:10B59000BEF1004F08BF5FEA500E50F1000041EBD2
:10B5A000045170BD06F0004646EA010140EA02007F
:10B5B00081EA0301B4EB5C04C2BFD4EB0C0541EAA1
:10B5C000045170BD41F480114FF0000E013C00F3B6
:10B5D000AB8014F1360FDEBF002001F0004170BDDA
:10B5E000C4F10004203C35DA0C341BDC04F11404F3
:10B5F000C4F1200500FA05F320FA04F001FA05F27F
:10B6000040EA020001F0004221F0004110EBD3704B
:10B6100021FA04F642EB06015EEA430E08BF20EA77
:10B62000D37070BDC4F10C04C4F1200500FA04F31A
:10B6300020FA05F001FA04F240EA020001F00041AC
:10B6400010EBD37041F100015EEA430E08BF20EA1F
:10B65000D37070BDC4F1200500FA05F24EEA020E67
:10B6600020FA04F301FA05F243EA020321FA04F096
:10B6700001F0004121FA04F220EA020000EBD3704D
:10B680005EEA430E08BF20EAD37070BD94F0000F4D
:10B690000FD101F00046400041EB010111F4801F81
:10B6A00008BF013CF7D041EA060195F0000F18BF32
:10B6B000704703F00046520043EB030313F4801F6E
:10B6C00008BF013DF7D043EA0603704794EA0C0F28
:10B6D0000CEA135518BF95EA0C0F0CD050EA41063E
:10B6E00018BF52EA4306D1D181EA030101F00041BB
:10B6F0004FF0000070BD50EA410606BF10461946E3
:10B7000052EA430619D094EA0C0F02D150EA0136EE
:10B7100013D195EA0C0F05D152EA03361CBF10462F
:10B7200019460AD181EA030101F0004141F0FE41CE
:10B7300041F470014FF0000070BD41F0FE4141F452
:10B74000780170BD70B54FF0FF0C4CF4E06C1CEA52
:10B7500011541DBF1CEA135594EA0C0F95EA0C0F07
:10B7600000F0A7F8A4EB050481EA030E52EA0335C2
:10B770004FEA013100F088804FEA03334FF08055E3
:10B7800045EA131343EA12634FEA022245EA111510
:10B7900045EA10654FEA00260EF000419D4208BFC1
:10B7A000964244F1FD0404F5407402D25B084FEA6E
:10B7B0003202B61A65EB03055B084FEA32024FF41A
:10B7C00080104FF4002CB6EB020E75EB030E22BF77
:10B7D000B61A754640EA0C005B084FEA3202B6EB37
:10B7E000020E75EB030E22BFB61A754640EA5C00E6
:10B7F0005B084FEA3202B6EB020E75EB030E22BF76
:10B80000B61A754640EA9C005B084FEA3202B6EB76
:10B81000020E75EB030E22BFB61A754640EADC0035
:10B8200055EA060E18D04FEA051545EA16754FEA97
:10B8300006164FEAC30343EA52734FEAC2025FEAB5
:10B840001C1CC0D111F4801F0BD141EA00014FF044
:10B8500000004FF0004CB6E711F4801F04BF014315
:10B860000020B4F1FD0C88BFBCF5E06F3FF6AFAE31
:10B87000B5EB030C04BFB6EB020C5FEA500C50F1C1
:10B88000000041EB045170BD0EF0004E4EEA113144
:10B8900014EB5C04C2BFD4EB0C0541EA045170BD4B
:10B8A00041F480114FF0000E013C90E645EA060E8F
:10B8B0008DE60CEA135594EA0C0F08BF95EA0C0FBD
:10B8C0003FF43BAF94EA0C0F0AD150EA01347FF405
:10B8D00034AF95EA0C0F7FF425AF104619462CE7DC
:10B8E00095EA0C0F06D152EA03353FF4FDAE10463F
:10B8F000194622E750EA410618BF52EA43067FF490
:10B90000C5AE50EA41047FF40DAF52EA43057FF41F
:10B91000EBAE12E74FF0FF3C06E000BF4FF0010C2A
:10B9200002E000BF4FF0010C4DF804CD4FEA410C8E
:10B930007FEA6C5C4FEA430C18BF7FEA6C5C1BD05B
:10B9400001B050EA410C0CBF52EA430C91EA030FDC
:10B9500002BF90EA020F0020704710F1000F91EA39
:10B96000030F58BF994208BF90422CBFD8176FEA07
:10B97000E37040F0010070474FEA410C7FEA6C5CD5
:10B9800002D150EA013C07D14FEA430C7FEA6C5CDC
:10B99000D6D152EA033CD3D05DF8040B704700BF08
:10B9A0008446104662468C461946634600E000BF56
:10B9B00001B5FFF7B7FF002848BF10F1000F01BD28
:10B9C0004DF808EDFFF7F4FF0CBF012000205DF8F3
:10B9D00008FB00BF4DF808EDFFF7EAFF34BF012078
:10B9E00000205DF808FB00BF4DF808EDFFF7E0FF11
:10B9F00094BF012000205DF808FB00BF4DF808ED62
:10BA0000FFF7CEFF94BF012000205DF808FB00BFC8
:10BA10004DF808EDFFF7C4FF34BF012000205DF8AA
:10BA200008FB00BF4FEA410C7FEA6C5C02D150EA90
:10BA3000013C0AD14FEA430C7FEA6C5C02D152EA26
:10BA4000033C02D14FF0000070474FF001007047F7
:10BA50004FEA410212F5001215D211D56FF4787336
:10BA6000B3EB625212D94FEAC12343F0004343EAD9
:10BA7000505311F0004F23FA02F018BF40427047B4
:10BA80004FF00000704750EA013005D111F000403E
:10BA900008BF6FF0004070474FF00000704700BFD4
:10BAA000044A05491368002B08BF0B461844106070
:10BAB0001846704798420020C8420020FEE700BFA9
:10BAC000F8B500BFF8BC08BC9E467047F8B500BF8B
:10BAD000F8BC08BC9E467047000000000100000052
